S01B00005241305F546F6B656E4E65745F4465766963652E7372656310
S31500000000D8450020910200009D0100009F020000DB
S315000000109F0200009F0200009F0200009F02000056
S315000000200000000000000000000000009F02000029
S315000000309F020000000000009F0200002D0C00003F
S3150000004000000000000000000000000000000000AA
S31500000050000000000000000000000000000000009A
S31500000060000000000000000000000000000000008A
S31500000070000000000000000000000000000000007A
S31500000080000000000000000000000000000000006A
S31500000090000000000000000000000000000000005A
S315000000A0000000000000000000000000000000004A
S315000000B0000000000000000000000000000000003A
S315000000C0000000000000000000000000000000002A
S315000000D0000000000000000000000000000000001A
S315000000E0050600009D0600000C48C17A890706D463
S315000000F0017A890708D40A490968007807E0817AF5
S31500000100074831B1083005E0054949684078C140E3
S3150000011001E01030016803480160704718E80140AB
S31500000120104000203441002002464A430E48006831
S315000001300E49B1FBF0F140F2E8300D4B9A4204D281
S315000001405043B0FBF1F0800805E08900B2FBF1F105
S31500000150994204D2484308B100F00CB87047002019
S31500000160C04300F007B8C0463441002000CA9A3B9D
S315000001703889410001380028FCD170478100024AC5
S31500000180515801B108477047644000208000024A78
S31500000190115000207047C04664400020F8B504AFF7
S315000001A00C490888098C014000918EB200240A4D42
S315000001B0092C0AD03046E040C00703D0296809B1AF
S315000001C0E0B288472D1D641CF2E7024800990182BF
S315000001D0F8BDC04620610040644000201F21014058
S315000001E001228A4040098000014942507047C046BA
S315000001F080E200E0F0B503AF03240346A343084CB6
S315000002001D598607F60EFF24B440A5438901C9B2DD
S31500000210B1402943024C1951800002490A50F0BDF1
S3150000022000E400E08C4000201F21014001228A40AA
S3150000023040098000014942507047C04600E100E095
S315000002401F21014001228A4041098900014BCA5001
S31500000250FFF7EABF80E200E01F21014001228A4049
S315000002604009800003494250BFF34F8FBFF36F8FA1
S315000002707047C04680E100E0D0B502AF0446FFF704
S31500000280B9FF2046D0BC02BC8E46FFF7D9BF7047E7
S3150000029080B500AF00F03EFB00F02CF9FEE700BE93
S315000002A07047FFFFFFFFFFFFFFFFFFFFFFFFFFFF9F
S315000002B0FFFFFFFFFFFFFFFFFFFFFFFFFFFFFFFF48
S315000002C0FFFFFFFFFFFFFFFFFFFFFFFFFFFFFFFF38
S315000002D0FFFFFFFFFFFFFFFFFFFFFFFFFFFFFFFF28
S315000002E0FFFFFFFFFFFFFFFFFFFFFFFFFFFFFFFF18
S315000002F0FFFFFFFFFFFFFFFFFFFFFFFFFFFFFFFF08
S31500000300FFFFFFFFFFFFFFFFFFFFFFFFFFFFFFFFF7
S31500000310FFFFFFFFFFFFFFFFFFFFFFFFFFFFFFFFE7
S31500000320FFFFFFFFFFFFFFFFFFFFFFFFFFFFFFFFD7
S31500000330FFFFFFFFFFFFFFFFFFFFFFFFFFFFFFFFC7
S31500000340FFFFFFFFFFFFFFFFFFFFFFFFFFFFFFFFB7
S31500000350FFFFFFFFFFFFFFFFFFFFFFFFFFFFFFFFA7
S31500000360FFFFFFFFFFFFFFFFFFFFFFFFFFFFFFFF97
S31500000370FFFFFFFFFFFFFFFFFFFFFFFFFFFFFFFF87
S31500000380FFFFFFFFFFFFFFFFFFFFFFFFFFFFFFFF77
S31500000390FFFFFFFFFFFFFFFFFFFFFFFFFFFFFFFF67
S315000003A0FFFFFFFFFFFFFFFFFFFFFFFFFFFFFFFF57
S315000003B0FFFFFFFFFFFFFFFFFFFFFFFFFFFFFFFF47
S315000003C0FFFFFFFFFFFFFFFFFFFFFFFFFFFFFFFF37
S315000003D0FFFFFFFFFFFFFFFFFFFFFFFFFFFFFFFF27
S315000003E0FFFFFFFFFFFFFFFFFFFFFFFFFFFFFFFF17
S315000003F0FFFFFFFFFFFFFFFFFFFFFFFFFFFFFFFF07
S31500000400FFFFFFFFF7AFC1FF80B500AF23480068CD
S3150000041040F2E831B0FBF1F0401E010E0DD120494B
S31500000420204A5060204803680B4003218907591869
S31500000430016000209060072010601C481C4900F0F5
S315000004405FF800261F4D34461B49087800B10E7030
S315000004501A49087800B10E701949087800B10E7073
S31500000460287858B12E70134A108817490840E107BA
S31500000470C90D40181080E0B2444244411348007848
S31500000480012803D11148067000F08CFB00F0F6FA43
S315000004900028D9D100F04AFBD6E7C04634410020F7
S315000004A0FFFFFF0010E000E020ED00E038400020F4
S315000004B0680D000000000A40BA410020BB41002040
S315000004C0BC410020BD410020FFFE0000A4410020E9
S315000004D0022804D010B9064801210170704702486D
S315000004E0024900F009B9C04630400020700E0000F5
S315000004F090C07E4080B500AFFFF786FF002080BD2C
S31500000500FEB506AF0E460446C16148692062886999
S31500000510002102916162A0622648A061EFF310807B
S315000005200121019181F3108823490A6848F20003EA
S315000005309A430A60096880F31088A069E169CD6969
S3150000054069684A7802710878E16909781B4A885413
S31500000550B0781B49085C7178C9000143F0788000C7
S31500000560084329784900014368780843A169C8709F
S31500000570A06903218170A069832181700298E060DF
S315000005806061A069E32181700520305631792246E9
S31500000590FFF772FE686840880199FFF7C5FD0720DE
S315000005A03056B1792246FFF767FE0648606002982A
S315000005B0FEBDC04600340A400070044000350A40C3
S315000005C07C0E000054524155F8B504AF00920C461B
S315000005D00546C06907268057FFF73EFE0098401E75
S315000005E0611CA960E860A869817802220A438270CA
S315000005F0E8698057FFF724FEA8692178017000207A
S31500000600F8BDFFFF0F200007EFF303810906081866
S3150000061080150E490858C16851B1816982681278FF
S315000006200A70C168491EC1608168491C81607047B3
S3150000063081698A78920703D40021022200F008B863
S315000006408878FD2202408A707047C0468C400020A0
S31500000650F0B503AF89B00446006AE0B1636A05A845
S315000006605BB105A8029003911D4601930492029B7B
S3150000067047CD47C30399049A0198E3691B788160C3
S3150000068003600271A16AC160216A8847606A10B17D
S3150000069005A93CC93CC009B0F0BDFFFFD0B502AF0B
S315000006A00F200007EFF3038109060818801510498B
S315000006B00858836959785A7907249C71224006D0D4
S315000006C00C4B9A5CD0BC08BC9E46FFF7C1BF426982
S315000006D04AB1026911700169491C01614169491EEB
S315000006E0416102D0D0BD0422ECE700210122E9E7F6
S315000006F08C400020800E000080B500AF034A0260E7
S31500000700084600F005F8002080BDC04654524F5000
S31500000710F8B504AF044600F01BF800200B4902466A
S3150000072023889A420CD263681D18AD88EEB2760013
S315000007302D0A6D01AD191B586B520830521CEFE79C
S31500000740F8BC01BC864600F01BB8C04600020A4051
S31500000750EFF31080012181F3108807490A6822B956
S31500000760064A00231370402313700A68521C0A605D
S3150000077080F310887047C0468840002040030A4036
S31500000780EFF31080012181F3108808490A6812B13D
S315000007900A68521E0A60096821B9054900220A70D2
S315000007A080220A7080F310887047C0468840002077
S315000007B040030A400C490A789209904212D04A78BE
S315000007C0012313434B70022806D00A78C023134036
S315000007D0802B01D080220A70800108704878FE22A2
S315000007E002404A707047C0460AC27E40F8B504AF60
S315000007F000911A4CE17AFE252940E172E17A8907D7
S31500000800FCD428B101260228314619D0012816D178
S31500000810617A29406172617A8907FCD4267A30B1FF
S31500000820012006432672207A8007FCD50FE02E4071
S315000008302672207A8007FCD40098207007E00021F9
S31500000840A172E07A3043E072E07A8007FCD56270EC
S31500000850A370F8BC01BC8646FFF746BC18E8014009
S31500000860F8B504AF2148C01C21490880214848F248
S3150000087000010024204A214B036042608160C4606D
S315000008800161FFF731FC1E4E1A2030701D480178B9
S3150000089089B10121CA051C490B6893430B600B689B
S315000008A01A4B1D787F20284018700868104308608E
S315000008B0086814480470307B08B1347303E040F2D2
S315000008C0E83000F025F84AF200550320FFF772FFE2
S315000008D03472B07CC007FCD0747220462146224692
S315000008E02346FFF783FF02480580F8BD00A5FFFFFA
S315000008F0FEE801401040002000093D000048E801E4
S3150000090000E8014024E80140087004400B2C0A402E
S3150000091070477047F8B504AF1B481C4901600024B6
S315000009202046FFF7D5FDFFF79BFF0120FFF7D0FD1F
S3150000093017481849091A00F0D3F9174817490A1A2F
S31500000940174900F0D4F9174D284600F0A9F92846B2
S3150000095000F0BCF9144D1548401B8610B44203DA6A
S3150000096001CD8047641CF9E7FFF7BEFBFFF7D1FF17
S315000009700220FFF7ADFDFFF78AFC0020F8BC02BCA1
S315000009808E4600F015B8C04608ED00E000000000F5
S3150000099030400020D4410020004000200C400020C0
S315000009A0880E00000C4000200C4000200C40002067
S315000009B07047FFFFF0B503AF85B00492024601937E
S315000009C00BB10B4600E08B1C9DB22A484378007899
S315000009D002900393C61A00D83236B3B29D4244D26F
S315000009E000250398234EEBB28B4210D2D35C13B989
S315000009F0049C012C09D1C4B23419A371401CC3B2A2
S31500000A00312B00D900201B4B58706D1CEBE7019968
S31500000A10A9B9C3B21749891D0D22CA54431CDAB2BB
S31500000A200020312A024600D81A46D3B20A24CC54F2
S31500000A30511CCAB2312A00D808460E49487002999C
S31500000A400398814213D10B4C6018811D0A4801227C
S31500000A50FFF7BAFD2078411CCAB20020312A0246AF
S31500000A6000D80A4603490A7002E0012000E000208F
S31500000A7005B0F0BD38410020384000200348817899
S31500000A80C078411A484248417047C0463841002064
S31500000A90D0B502AF01794A1E072A08D910291CD001
S31500000AA020291AD0402918D0802916D0D0BD91000F
S31500000AB001A359188F46C04600F00FB800F012B8CF
S31500000AC000F00AB800F021B800F006B800F004B84B
S31500000AD000F002B800F001B8E8E712488188491C26
S31500000AE08180D0BD0F4C207861788842DED02018F6
S31500000AF0811D0D480122FFF767FD2078401CC1B219
S31500000B00312900D900202070D0BD06498A788B187B
S31500000B10806838241855501CC2B2312A00D90020EA
S31500000B208870D0BD3841002038400020B0B502AFF3
S31500000B30194C207819490B5C1949242B05D124221C
S31500000B400A7101220A704A701CE00A78012A19D13A
S31500000B504A788D182B71521C4A700A2B12D14B7988
S31500000B605B1C4B718D79DBB2AB4204D100220A705B
S31500000B7001228A7006E0081DD1B200220123FFF788
S31500000B8019FF2078411CCAB20020312A024600D83B
S31500000B900A462270B0BDC0463B410020704100208D
S31500000BA0A2410020D0B502AF1E4CE07920210143BE
S31500000BB06C2933D1207A332811D0312808D0302837
S31500000BC02CD11948018840F200229143018025E08A
S31500000BD01548018840F200220A4302801EE0E078B0
S31500000BE011490A8840F200239A43C3079B0D9A18BD
S31500000BF00A8041424141E1700420411C021F132A30
S31500000C0003D8205C0A280846F7D1481F81B2142968
S31500000C1004D0201D00220123FFF7CCFE0020A07087
S31500000C20D0BDC046A241002000000A401A480188F3
S31500000C30491E0180090404D10A21018017490122B5
S31500000C400A704188491E4180090404D11921418056
S31500000C50124901224A708188491E8180090404D103
S31500000C60642181800D4901228A70C188491EC18094
S31500000C70090405D140F2E831C18008480121C1705C
S31500000C800648C18819B1491EC180090400D07047C1
S31500000C90012101717047C04604400020BA4100207E
S31500000CA0D0B502AF04460549054A00F020F80548CC
S31500000CB02018054900F014F8D0BDC046940E000077
S31500000CC00100000001000000000000000249401A77
S31500000CD0024908607047C04608000000D041002065
S31500000CE080B500AF0A46002100F00BF880BDD0B5F4
S31500000CF002AF00239A4203D0CC5CC4545B1CF9E7D4
S31500000D00D0BD00239A4202D0C1545B1CFAE770475B
S31500000D1000000805352E382E30004275696C7420A7
S31500000D20776974682052656E6573617320416476D5
S31500000D30616E63656420466C657869626C652053F4
S31500000D406F667477617265205061636B61676520B9
S31500000D5076657273696F6E20352E382E3000FFFF70
S31500000D6001000000004000200003000002290228C4
S31500000D700000FFDF0000000000000000910A0000F4
S31500000D8000000000600D00000400000008000000E4
S31500000D900400000009000000000000000A00000036
S31500000DA0008000000B000000008000000C00000026
S31500000DB0008000000D000000008000000E00000012
S31500000DC0004000000F0000001000000000010000BD
S31500000DD010000000010100001000000002010000E8
S31500000DE010000000030100000001000008010000DF
S31500000DF01000000009010000100000000A010000B8
S31500000E00100000000C01000000400000000200007D
S31500000E1010000000010200000000000006020000B1
S31500000E2000020000070200000402000008020000A1
S31500000E30000400000C020000040400000D02000083
S31500000E40000000000E020000000000000F0200007B
S31500000E500001000000030000040100000704000078
S31500000E60000000000D090000000000000E0900004F
S31500000E701D000000880D00000000000000206040FA
S30D00000E80002010300828183884
S31100000E8830D001000A0019006400E803E5
S30600000E94FF58
S31501010018FFFFFFFFFFFFFFFFFFFFFFFFFFFFFFFFE0
S31101010028FFFFFFFFFFFFFFFFFFFFFFFFD0
S7050000029167
