S01D00005241305F546F6B656E4E65745F4465766963652D302E73726563B1
S31500000000684B0020910200009D0100009F02000045
S315000000109F0200009F0200009F0200009F02000056
S315000000200000000000000000000000009F02000029
S315000000309F020000000000009F020000CD1000009B
S3150000004000000000000000000000000000000000AA
S31500000050000000000000000000000000000000009A
S31500000060000000000000000000000000000000008A
S31500000070000000000000000000000000000000007A
S31500000080000000000000000000000000000000006A
S31500000090000000000000000000000000000000005A
S315000000A00000000000000000850A000000000000BB
S315000000B0000000000000000000000000000000003A
S315000000C0000000000000000000000000000000002A
S315000000D0000000000000000000000000000000001A
S315000000E089070000210800000C48C17A890706D458
S315000000F0017A890708D40A490968007807E0817AF5
S31500000100074831B1083005E0054949684078C140E3
S3150000011001E01030016803480160704718E80140AB
S3150000012024400020C441002002464A430E4800688D
S315000001300E49B1FBF0F140F2E8300D4B9A4204D281
S315000001405043B0FBF1F0800805E08900B2FBF1F105
S31500000150994204D2484308B100F00CB87047002019
S31500000160C04300F007B8C046C441002000CA9A3B0D
S315000001703889410001380028FCD170478100024AC5
S31500000180515801B108477047F44000208000024AE8
S31500000190115000207047C046F4400020F8B504AF67
S315000001A00C490888098C014000918EB200240A4D42
S315000001B0092C0AD03046E040C00703D0296809B1AF
S315000001C0E0B288472D1D641CF2E7024800990182BF
S315000001D0F8BDC04620610040F44000201F210140C8
S315000001E001228A4040098000014942507047C046BA
S315000001F080E200E0F0B503AF03240346A343084CB6
S315000002001D598607F60EFF24B440A5438901C9B2DD
S31500000210B1402943024C1951800002490A50F0BDF1
S3150000022000E400E01C4100201F21014001228A4019
S3150000023040098000014942507047C04600E100E095
S315000002401F21014001228A4041098900014BCA5001
S31500000250FFF7EABF80E200E01F21014001228A4049
S315000002604009800003494250BFF34F8FBFF36F8FA1
S315000002707047C04680E100E0D0B502AF0446FFF704
S31500000280B9FF2046D0BC02BC8E46FFF7D9BF7047E7
S3150000029080B500AF00F04EFD00F0EEF9FEE700BEBF
S315000002A07047FFFFFFFFFFFFFFFFFFFFFFFFFFFF9F
S315000002B0FFFFFFFFFFFFFFFFFFFFFFFFFFFFFFFF48
S315000002C0FFFFFFFFFFFFFFFFFFFFFFFFFFFFFFFF38
S315000002D0FFFFFFFFFFFFFFFFFFFFFFFFFFFFFFFF28
S315000002E0FFFFFFFFFFFFFFFFFFFFFFFFFFFFFFFF18
S315000002F0FFFFFFFFFFFFFFFFFFFFFFFFFFFFFFFF08
S31500000300FFFFFFFFFFFFFFFFFFFFFFFFFFFFFFFFF7
S31500000310FFFFFFFFFFFFFFFFFFFFFFFFFFFFFFFFE7
S31500000320FFFFFFFFFFFFFFFFFFFFFFFFFFFFFFFFD7
S31500000330FFFFFFFFFFFFFFFFFFFFFFFFFFFFFFFFC7
S31500000340FFFFFFFFFFFFFFFFFFFFFFFFFFFFFFFFB7
S31500000350FFFFFFFFFFFFFFFFFFFFFFFFFFFFFFFFA7
S31500000360FFFFFFFFFFFFFFFFFFFFFFFFFFFFFFFF97
S31500000370FFFFFFFFFFFFFFFFFFFFFFFFFFFFFFFF87
S31500000380FFFFFFFFFFFFFFFFFFFFFFFFFFFFFFFF77
S31500000390FFFFFFFFFFFFFFFFFFFFFFFFFFFFFFFF67
S315000003A0FFFFFFFFFFFFFFFFFFFFFFFFFFFFFFFF57
S315000003B0FFFFFFFFFFFFFFFFFFFFFFFFFFFFFFFF47
S315000003C0FFFFFFFFFFFFFFFFFFFFFFFFFFFFFFFF37
S315000003D0FFFFFFFFFFFFFFFFFFFFFFFFFFFFFFFF27
S315000003E0FFFFFFFFFFFFFFFFFFFFFFFFFFFFFFFF17
S315000003F0FFFFFFFFFFFFFFFFFFFFFFFFFFFFFFFF07
S31500000400FFFFFFFFF7AFC1FF80B500AF8AB06E48B0
S31500000410006840F2E831B0FBF1F0401E010E0DD14C
S315000004206A496B4A50606B4803680B400321890791
S3150000043059180160002090600720106066486749DF
S3150000044000F020F9664C6749204600F075FA664DC3
S3150000045068603C20606000F0ADFE01F001F80A2003
S31500000460142100F097FF61486149012200F0E2FF84
S315000004700020614C6249634A2B4608330993019078
S315000004800546207808B1002020705C48007810B13D
S3150000049000205A4B1870087808B1002008701078B0
S315000004A060B100201070534A108857490840E90788
S315000004B0C90D40181080E8B24542454153480078BE
S315000004C0012804D101985149087000F0B7FD00F0E9
S315000004D021FD18B100204449087071E000F072FD5A
S315000004E0002409984A4922464A4EB04708953E4D8F
S315000004F028461830059046492246B04728462830F7
S31500000500069043492246B0476A88383507952846FB
S315000005103F49B047204600F0D9FE0521029120460A
S315000005203D4A904701253D483D492A463D4B98475F
S315000005300A20049014263146374A904709982C49D8
S315000005402A46384B9847462003900299324A9047EC
S31500000550354833492A46334B984750200290314656
S315000005602D4A9047059822492A462E4B9847282619
S3150000057020463146284A90472C4829492A46294B85
S315000005809847322404982146234A904706982449DE
S315000005902A46244B9847039831461F4A90472448D9
S315000005A01F492A461F4EB04702982146124C1A4A46
S315000005B0904707981A492A46089DB04700F094FECE
S315000005C00F49104A5DE7C046C4410020FFFFFF0007
S315000005D010E000E020ED00E0C8400020A03300005D
S315000005E09440002070330000444000204533000052
S315000005F01840002000000A404C4200204D420020D6
S315000006004E4200204F420020FFFE000034420020F0
S3150000061037330000BD140000951300002A33000094
S3150000062010400020351400002F3300002633000050
S315000006303A330000022804D010B90648012101709F
S3150000064070470248024900F019B9C0468C400020A4
S31500000650A834000090C07E4040B10079044908707B
S315000006600878032802D10348002101707047C0466C
S31500000670004000204040002080B500AFFFF7C4FED8
S31500000680002080BDFEB506AF0E460446C16148692E
S3150000069020628869002102916162A0622648A061F9
S315000006A0EFF310800121019181F3108823490A6834
S315000006B048F200039A430A60096880F31088A0692B
S315000006C0E169CD6969684A7802710878E169097853
S315000006D01B4A8854B0781B49085C7178C9000143ED
S315000006E0F078800008432978490001436878084378
S315000006F0A169C870A06903218170A06983218170F6
S315000007000298E0606061A069E3218170052030569F
S3150000071031792246FFF7B0FD686840880199FFF7F6
S3150000072003FD07203056B1792246FFF7A5FD06489E
S3150000073060600298FEBDC04600340A400070044066
S3150000074000350A40B434000054524155F8B504AFA0
S3150000075000920C460546C06907268057FFF77CFDC8
S315000007600098401E611CA960E860A8698178022291
S315000007700A438270E8698057FFF762FDA86921780D
S3150000078001700020F8BDFFFF0F200007EFF3038183
S315000007900906081880150E490858C16851B18169C3
S315000007A0826812780A70C168491EC1608168491C56
S315000007B08160704781698A78920703D400210222FA
S315000007C000F008B88878FD2202408A707047C0465B
S315000007D01C410020F0B503AF89B00446006AE0B1C1
S315000007E0636A05A85BB105A8029003911D460193B3
S315000007F00492029B47CD47C30399049A0198E36983
S315000008001B78816003600271A16AC160216A884712
S31500000810606A10B105A93CC93CC009B0F0BDFFFF34
S31500000820D0B502AF0F200007EFF3038109060818C1
S31500000830801510490858836959785A7907249C719C
S31500000840224006D00C4B9A5CD0BC08BC9E46FFF7F3
S31500000850C1BF42694AB1026911700169491C01614F
S315000008604169491E416102D0D0BD0422ECE7002156
S315000008700122E9E71C410020B834000080B500AF32
S31500000880034A0260084600F005F8002080BDC04615
S3150000089054524F50F8B504AF044600F01BF8002040
S315000008A00B49024623889A420CD263681D18AD880C
S315000008B0EEB276002D0A6D01AD191B586B52083049
S315000008C0521CEFE7F8BC01BC864600F01BB8C046D8
S315000008D000020A40EFF31080012181F310880749D6
S315000008E00A6822B9064A00231370402313700A6867
S315000008F0521C0A6080F310887047C04618410020D9
S3150000090040030A40EFF31080012181F31088084963
S315000009100A6812B10A68521E0A60096821B90549B7
S3150000092000220A7080220A7080F310887047C04641
S315000009301841002040030A40F8B504AF04460160A0
S3150000094088686060087B2072C869E062086A206374
S31500000950EFF31080012282F310880A7840F20043F8
S315000009609340274A15689D431560126880F31088E6
S315000009702068456AA878234EB0706878F0702A78A7
S31500000980E87880001043226852681F4B9A4201D0D3
S3150000099008221043707010200856497B2246FFF744
S315000009A06BFC30787F2101403170287902210143A8
S315000009B01648017030789C210143317000F0C4F86C
S315000009C0288AC1B24900000A400140186969104AE4
S315000009D081522889C1B24900000A40014018E968DD
S315000009E0815200F0C9F824210020605421462431A8
S315000009F0C8706061A061E061064AE2608870F8BD77
S31500000A000070044000310A40A086010002300A400E
S31500000A1000020A4043494952D0B502AF2524035586
S31500000A200024234600F002F82046D0BDD0B502AF20
S31500000A3000240646143616C601462131027A012ADA
S31500000A4005D101224A700079400018430870581EEB
S31500000A508341CB708C71CC718C70487910B14C711C
S31500000A60012006E0054802780223134303708878C4
S31500000A70401C8870087802490870D0BD00310A40D1
S31500000A8000300A40F0B503AF0F200007EFF30381F3
S31500000A9009060818801529490858024624320121FA
S31500000AA0274B5D56EC072ED1ECB2660701D41679BA
S31500000AB0DEB1002D19D540252C4016D18569C469B3
S31500000AC0AC4218D2157825B316791D781D4B56B34E
S31500000AD041690D55C169491CC16182691878914205
S31500000AE028D1D3210840283026E0D1701548027855
S31500000AF00A430270F0BD5578124B1C7885B1022569
S31500000B002C431C709170D178F0BC04BC964600F062
S31500000B104DB84169095D1970C169491CC161F0BDD3
S31500000B200C431C70F0BD11711878D321014024319B
S31500000B301970F0BD202108431870F0BD1C4100203B
S31500000B4000300A4000310A40EFF31080012181F3A2
S31500000B50108807490A6822B9064A00231370402301
S31500000B6013700A68521C0A6080F310887047C046EA
S31500000B701841002040030A40EFF31080012181F361
S31500000B80108808490A6812B10A68521E0A60096884
S31500000B9021B9054900220A7080220A7080F3108864
S31500000BA07047C0461841002040030A40E0B502AF36
S31500000BB009B1012205E02421415C09B1022200E0CD
S31500000BC0032269460A71C26A006B00900846904784
S31500000BD08CBDFFFF0C490A789209904212D04A78E0
S31500000BE0012313434B70022806D00A78C023134012
S31500000BF0802B01D080220A70800108704878FE227E
S31500000C0002404A707047C0460AC27E40F8B504AF3B
S31500000C1000911A4CE17AFE252940E172E17A8907B2
S31500000C20FCD428B101260228314619D0012816D154
S31500000C30617A29406172617A8907FCD4267A30B1DB
S31500000C40012006432672207A8007FCD50FE02E404D
S31500000C502672207A8007FCD40098207007E00021D5
S31500000C60A172E07A3043E072E07A8007FCD56270C8
S31500000C70A370F8BC01BC8646FFF736BA18E80140F7
S31500000C80F8B504AF2148C01C21490880214848F224
S31500000C9000010024204A214B036042608160C46049
S31500000CA00161FFF721FA1E4E1A2030701D480178A7
S31500000CB089B10121CA051C490B6893430B600B6877
S31500000CC01A4B1D787F20284018700868104308606A
S31500000CD0086814480470307B08B1347303E040F2AE
S31500000CE0E83000F025F84AF200550320FFF772FFBE
S31500000CF03472B07CC007FCD074722046214622466E
S31500000D002346FFF783FF02480580F8BD00A5FFFFD5
S31500000D10FEE801402440002000093D000048E801AB
S31500000D2000E8014024E80140087004400B2C0A400A
S31500000D3070477047F8B504AF1B481C490160002492
S31500000D402046FFF777FCFFF79BFF0120FFF772FCB9
S31500000D5017481849091A01F0FDFF174817490A1ADA
S31500000D60174901F0FEFF174D284600F087FB28467D
S31500000D7000F09AFB144D1548401B8610B44203DA66
S31500000D8001CD8047641CF9E7FFF7AEF9FFF7D1FF05
S31500000D900220FFF74FFCFFF77AFA0020F8BC02BCEE
S31500000DA08E4600F015B8C04608ED00E000000000D1
S31500000DB040400020644700200040002020400020E2
S31500000DC0C44C00002040002020400020204000208D
S31500000DD07047F0B503AF86B0009303920024012656
S31500000DE032460594029101961546049200238C42E0
S31500000DF001D31A4600E001222A403146114001295A
S31500000E001BD1055D29463039012300260929F4D86E
S31500000E10641C035D0A21059A51434919303905912D
S31500000E20002203998B4205D0002B0299019E049D56
S31500000E30DCD1D9E70299019ED6E7F00702D00098E7
S31500000E4005990180D8B206B0F0BDFFFFF0B503AF3B
S31500000E5085B00492024601930BB10B4600E08B1C51
S31500000E609DB22A484378007802900393C61A00D8A8
S31500000E703236B3B29D4244D200250398234EEBB2DC
S31500000E808B4210D2D35C13B9049C012C09D1C4B295
S31500000E903419A371401CC3B2312B00D900201B4B5F
S31500000EA058706D1CEBE70199A9B9C3B21749891DA2
S31500000EB00D22CA54431CDAB20020312A024600D859
S31500000EC01A46D3B20A24CC54511CCAB2312A00D8CD
S31500000ED008460E49487002990398814213D10B4C7B
S31500000EE06018811D0A480122FFF730FC2078411C5A
S31500000EF0CAB20020312A024600D80A4603490A70BF
S31500000F0002E0012000E0002005B0F0BDC84100204D
S31500000F10C840002003488178C078411A48424841B9
S31500000F207047C046C8410020D0B502AF01794A1EBD
S31500000F30072A08D910291CD020291AD0402918D0F0
S31500000F40802916D0D0BD910001A359188F46C046FE
S31500000F5000F00FB800F012B800F00AB800F021B89F
S31500000F6000F006B800F004B800F002B800F001B8CE
S31500000F70E8E712488188491C8180D0BD0F4C207853
S31500000F8061788842DED02018811D0D480122FFF7C6
S31500000F90DDFB2078401CC1B2312900D90020207029
S31500000FA0D0BD06498A788B18806838241855501C9D
S31500000FB0C2B2312A00D900208870D0BDC8410020B5
S31500000FC0C8400020B0B502AF194C207819490B5C17
S31500000FD01949242B05D124228A7140F201120A8074
S31500000FE01CE00A78012A19D14A788D18AB71521C77
S31500000FF04A700A2B12D1CB795B1CCB710D7ADBB20E
S31500001000AB4204D100220A7001228A7006E0881DD4
S31500001010D1B200220123FFF719FF2078411CCAB282
S315000010200020312A024600D80A462270B0BDC046CA
S31500001030CB4100200042002032420020B0B502AF72
S315000010401F4C607A00254C2806D0532813D07328ED
S3150000105011D06C28284631D1A07A33281DD03128EA
S3150000106014D03028284629D11748018840F200229A
S315000010709143018021E020460A30231D05210A22E2
S31500001080FFF7A7FE21790F4A117017E00E48018875
S3150000109040F200220A4302800FE0E0780A490A88FB
S315000010A040F200239A43C3079B0D9A180A8010B199
S315000010B00020E07002E00120E0702846A570B0BD77
S315000010C0324200204640002000000A401A480188AB
S315000010D0491E0180090404D10A2101801749012211
S315000010E00A704188491E4180090404D119214180B2
S315000010F0124901224A708188491E8180090404D15F
S31500001100642181800D4901228A70C188491EC180EF
S31500001110090405D140F2E831C18008480121C170B7
S315000011200648C18819B1491EC180090400D070471C
S31500001130012101717047C046064000204C42002044
S31500001140BCB504AF01AC62702170074D0120287058
S315000011500648022200232146FFF75EFC0449086088
S3150000116028780128FCD0BCBD4040002094400020D7
S3150000117048400020B0B502AF7F2816D83F2914D8C2
S315000011800A4B1B785C425C4107250D400123AB40AE
S315000011900D0140F28031294001430548455C9442E7
S315000011A001D09D4300E01D434554B0BD544200208C
S315000011B058420020F8B504AF0024AE22404D204628
S315000011C02146A8472022009220462146A8471026FD
S315000011D0204621463246A847B02220462146A84747
S315000011E0C82220462146A847204621462246A8472F
S315000011F0204621463246A847402220462146A84797
S31500001200812220462146A847FF2220462146A8479C
S31500001210A12220462146A847A62220462146A847C5
S31500001220A82220462146A8473F2220462146A84715
S31500001230A42220462146A847D32220462146A84775
S31500001240204621462246A847D52220462146A847C1
S31500001250F02220462146A847D92220462146A84703
S31500001260222220462146A847DA2220462146A847C0
S31500001270122220462146A847DB2220462146A847BF
S3150000128020462146009AA8478D2220462146A84797
S31500001290142220462146A847AF2220462146A847C9
S315000012A02E2220462146A847064840F2004101F07A
S315000012B051FD00F019F80448448004800120F8BD6F
S315000012C041110000584200205847002080B500AF69
S315000012D008B9024600E0FF22024840F2004101F050
S315000012E031FD80BD58420020F0B503AF85B0002423
S315000012F0144DB020039010200290402001908020D1
S3150000130000902646082E1BD0304603990843C2B2E9
S31500001310204621460C4B04951D46984720462146FB
S315000013202246A84720462146029AA847049D204601
S3150000133001992A46009B00F009F88035761CE1E702
S3150000134005B0F0BD5842002041110000B0B502AF13
S315000013500C4801700021CCB29C4204D2155D2418C1
S315000013606570491CF7E7084C012020705A1C074895
S3150000137004490023FFF750FB05490860207801283F
S31500001380FCD0B0BD584600204040002094400020CC
S3150000139048400020014A518010807047584700207D
S315000013A0F0B503AF87B003920546214E30880C781E
S315000013B0221800207F2A39D8738805914A78D318D5
S315000013C03F2B33D803984142414104910195203D7A
S315000013D0029500230599934223D202984243500076
S315000013E04A68101806935A00865A0025A54213D259
S315000013F03046A8400004049A069B00D5039A0C497F
S315000014000888401980B24988C91889B2FFF7B2FE28
S315000014106D1C05990C78E9E74A78069B5B1C044E1F
S31500001420D9E7E0B2318808183080019807B0F0BDDE
S3150000143058470020F8B504AF14460D46064600206E
S315000014400090307850B129462246FFF7A9FF0146A1
S31500001450721C307881421646F3D0F8BD0098F8BD6C
S3150000146080B500AF044840F2004101F073FC80BC37
S3150000147001BC8646FFF738BF58420020D0B502AF00
S3150000148004460549054A01F06CFC05482018054943
S3150000149001F060FCD0BDC046E44C00000100000035
S315000014A001000000000000000249401A02490860DD
S315000014B07047C046080000006047002082B0B0B503
S315000014C002AF88B00446BA60FB60684602228270AA
S315000014D000250580069503950295094A0192049414
S315000014E0084AA2180592FA1D0132079200F014F874
S315000014F0002800D4255408B0B0BC02BC02B008478E
S3150000150009150000FFFFFF7F0A694B699A4202D066
S31500001510531C0B6110707047F0B503AFA3B00346C0
S3150000152022920024E0439A78920701D400F06FFDDE
S315000015301A941090199358681890229821901BA815
S31500001540821D0B92421D0992401E079001201290A7
S3150000155040020F90AE48401C06900D910D46159125
S31500001560159D2878252805D0002801D100F051FDC9
S315000015706D1C03E06C78AD1C252C0AD115951999C4
S31500001580189A90471A99491C1A910028E8D500F034
S3150000159038FD00211791169114910F9A8EB21F2EC5
S315000015A021D82046273809283BD880000B4602A1BF
S315000015B0085819468746C046BB160000EB150000C2
S315000015C0EB150000EB150000E1150000EB1500001F
S315000015D095160000EB150000EB15000091160000B3
S315000015E00220014347E07F2E0ED8204630380928D6
S315000015F01DD80C46402E44D220210C430A21169BAE
S3150000160059434018169041E04C2C37D0682C48D0EE
S315000016106A2C33D07A2C50D0742C4ED06C2C3BD004
S315000016207BE0202C27D0232CDFD1102044E0242C73
S3150000163048D07A2C41D02E2C39D04C2C1ED0682C78
S315000016402FD06A2C1AD06C2C26D0742C35D02A2C8C
S3150000165063D11498002830D10C462198011D2191A0
S315000016600068002114913F2E0FD800284ED4202167
S315000016700C4321464EE0084604211DE0104680300A
S315000016801AE00A21179B594340181790214614E087
S31500001690012011E008200FE0880010400843802157
S315000016A00AE04800104008431299090204E03F2E60
S315000016B001D900F0AEFC402001432C786D1C002CB3
S315000016C02AD06BE7149800281AD0119122982190FD
S315000016D0402E169A144600D3179A21A90D9800F0A9
S315000016E0A1FC2198011D21910168402E084600D3D6
S315000016F02046402E0F9A00D3179116901199DCE7D9
S3150000170000211698149016911791D6E728210C43BC
S31500001710214640421690D0E70024149A002A07D0AA
S31500001720229821900E4621A90D9800F07BFC3146A7
S315000017301798002801D540208143179AD0171346E1
S3150000174083432026224632431046653803281393E6
S31500001750159501D3612A31D10E462198C11D072066
S315000017608143084608302190131B03C9612A14934C
S3150000177012D1DAB200927206109B00D5139B1BAAF7
S3150000178000F02AFD1390401C0C900320C002064373
S3150000179070200590012166E0730601D40623139399
S315000017A0D3B2662B2CD0652B34D1012212031643FB
S315000017B0139A531C00226524059448E0E0B2149065
S315000017C06F3806280C962AD8082300260E96800025
S315000017D00E4602A1085831468746C046EB1900005E
S315000017E0F9170000D3190000D31900001D1A0000D4
S315000017F0D3190000E1190000102319437820F3E003
S31500001800012462031643662205921123139A1FE0F0
S31500001810E7030000139C230615D0234614E0149812
S31500001820692800D1C3E0642800D1C0E0632800D055
S31500001830CFE00E462198011D219100681BA90C4698
S3150000184008700120FBE00123921E05920022144637
S3150000185000940192DBB2112B00D311231BAA00F0D6
S3150000186075FD0C9002210820C0431B9A8242169BEC
S3150000187008DA6220C04382420DD2FC48824208D276
S31500001880042109E0092A07DD632A04D9D0087D2846
S31500001890F6D2032100E002210A911BA8017900205B
S315000018A00E90C807B0B2119209D13446B2070AD4D5
S315000018B042070C9E0CD40022089201220BE034460B
S315000018C02D26089602E02B220892119A0C9E04E01F
S315000018D02022089200220E92119A0907890F04D03D
S315000018E00E98002813D1042012E0A104890F00D01D
S315000018F0DBE0139B012B00D80123F1B2002943D072
S315000019001BAA8A181279302A3ED1761EF5E70320E3
S3150000191000211791834213DD21070FD4C61A202018
S315000019201999189A9047002800D56AE3701C1A99ED
S31500001930491C1A91B0420646F1D201E0181A1790D6
S315000019400E98002809D108981999189A90470028E6
S3150000195000D556E31A98401C1A901BA80079000778
S31500001960CD4C00D5CD4C2078002800D12EE314991B
S31500001970401AC0B21999189A90471A99491C1A9197
S31500001980641C0028EFD53CE3C00600D519460320A9
S31500001990C043119A82420C9619DB9A4217DA01204B
S315000019A0400304438A427EDAD04308187CE088B2BA
S315000019B0119109066FD421990A1D21920A68C10561
S315000019C000D43DE2800500D539E212B238E2481E65
S315000019D06AE0782A00D051E18820031B0E9404E0C7
S315000019E0AF4801400A2375200E900C46AD480440CE
S315000019F00806119109D42198011D21910068E2057C
S31500001A000021002A39D4264663E12646A0052198FE
S31500001A1039D4011D2191006800215AE121980A4616
S31500001A20011D21915106109900D5139900680028CF
S31500001A309D4A00D002461446104600F077FC310756
S31500001A40169917D481420A4600D3024617922546B4
S31500001A500446A14200D829E10E4620201999189A79
S31500001A609047002800D5CCE23146711E1A98401CDA
S31500001A701A90EEE72546044619E12646A20500D54A
S31500001A8026E180B225E1C11D0720814308460830C2
S31500001A90219003C91DE18005219800D533E1011D80
S31500001AA021910268CCE1002013900A99012043039A
S31500001AB02340A6B2C4020493002B03D1264205D0CC
S31500001AC0052004E0012A03DB501C01E00320401836
S31500001AD0F206139900290392179401D0491C00E0DD
S31500001AE0D10F01220E9B5A408B181B18169CE41A24
S31500001AF000DC002409231E4214D1002C12D0081841
S31500001B0080181699441A20201999189A9047002887
S31500001B1000D576E2601C1A99491C1A91A042044627
S31500001B20F1D200240E98002809D108981999189A1C
S31500001B309047002800D564E21A98401C1A9017981E
S31500001B40064213D030201999189A9047002800D5DC
S31500001B5057E278201499401AC0B21999189A9047FA
S31500001B60002800D54DE21A98801C1A9030070ED432
S31500001B70002C0CD01A9820181A9030201999189A0F
S31500001B809047002800D53CE2641EF6D10024049854
S31500001B900028119E179431D11BA84079312804D012
S31500001BA01BA90A79EF2313400B711999189A9047CC
S31500001BB0002800D525E21398012859DB2E20199913
S31500001BC0189A9047002800D51BE21A98139908180E
S31500001BD0851C0C98C4B200201399814200D1A3E061
S31500001BE0461CA64202D20B99085C00E030201999E7
S31500001BF0189A904700283046EED502E209988519D2
S31500001C00F0178643109C74431398404216900C9824
S31500001C10C0B21490012C09D12E201999189A904718
S31500001C20002800D5EDE11A98401C1A903020119931
S31500001C30091903D4149A914200DA285D169A96423D
S31500001C400ADD1999189A9047761E641C1A99491C40
S31500001C501A910028DED5D4E1491C00D2D6E01BA992
S31500001C604979352900D8CBE03120CFE019FCFFFFB8
S31500001C70039800284FD41A98451C55E02520199939
S31500001C80189A9047002800D5BBE114981999189A1C
S31500001C9090471A99891C77E43333000041330000DA
S31500001CA0EFFF0000F9FF00005033000017991A9863
S31500001CB000191A90081B1790002C00D186E128788D
S31500001CC01999189A90476D1C641E0028F4D598E15E
S31500001CD0C0B202460A4302D11624119EA643002A28
S31500001CE006D01BAC224600F049FA021B0E9CC6E049
S31500001CF0119A5206F5D5179A012AF2DAC648119EAC
S31500001D0006400022F2E7C01D07218843014608313C
S31500001D1021910CC895E02E201999189A9047002811
S31500001D2000D56EE11A98851C14980599081AC0B258
S31500001D301999189A9047002800D562E1119A002A4D
S31500001D4009D42B20002A09D11BA90979C90602D476
S31500001D500021119102E0524211922D201999189AF0
S31500001D609047002800D54CE10A99042913D37D2019
S31500001D70C100119801F006F804463030C0B2199936
S31500001D80189A9047002800D53BE1069844431198DD
S31500001D90001BED1C03E0AD1C032911982DD1642412
S31500001DA01190214600F0EEFF06463030C0B2199978
S31500001DB0189A9047002800D523E174431198001B18
S31500001DC06D1C0A241190214600F0DCFF06463030D7
S31500001DD0C0B21999189A9047002800D511E17443AA
S31500001DE01198001B6D1C3030C0B21999189A904793
S31500001DF0002800D505E1681CE7E00229E1D2F2E7F8
S31500001E0004D11BA90979C90600D42DE71999189A96
S31500001E109047002800D5F4E01A98401C0399002941
S31500001E2000D4D2E0002C00D0CFE02E201999189AC9
S31500001E309047002800D5E4E01A98801CC5E052B20D
S31500001E40D317DE1719467140149210467040801B56
S31500001E50B141002B01D4119A03E00126B202119E72
S31500001E6032431026B243149E1E43164600D1BEE0EE
S31500001E701BAA17920A2300F081F91799421A169B9A
S31500001E8070060AD530466549084013998A4203DA36
S31500001E90002C04D0064604E00646119203E0112009
S31500001EA0864313981190102131400E91B0B21492CE
S31500001EB0179007D1139E5A491F3101404A1E91417E
S31500001EC0024605E0002C129900D00221139E179AB3
S31500001ED01198091810071ED4D00707D0994204DAC2
S31500001EE01498C018461A194600E0149E8B421393A4
S31500001EF00EDC13910CE00D4620201999189A904794
S31500001F0000287ED42946691C1A98401C1A90169BF4
S31500001F109942F0DB13990E980028179A1AD1404877
S31500001F201F30024228D0900701D52B200C900C467A
S31500001F303B481930024201D02D200C900C9819997B
S31500001F40189A904700285CD41A98401C1A90169844
S31500001F50214618E0179130201999189A90470028C1
S31500001F604FD4002C0AD0E0B21999189A904700284D
S31500001F7047D41A98801C03E0169804E01A98401C6F
S31500001F801A9016981799401A1790149886420ADDE7
S31500001F9030201999189A9047761E1A99491C1A9159
S31500001FA00028F2D52DE0109C14994C43079845184B
S31500001FB00026B44207D0A85D1999189A9047761E54
S31500001FC00028F6D51DE01A98801B1A90179C012C44
S31500001FD001DAFFF7C5FA20201999189A90471A993D
S31500001FE0491C1A91641E17940028EFD509E0119A2E
S31500001FF0520600D43CE7179A012A00DB38E7002294
S315000020003DE7199A9078042101439170109823B006
S31500002010F0BD1A98FBE7C046E9FF0000FEFF00008E
S31500002020E7030000F0B503AF86B000910646012134
S315000020300190914200DB9DE03078252803D0761C84
S315000020400028F9D196E07478B61C252CF4D00391BB
S315000020500292012041020591002504952A46ABB261
S315000020601F2B09D82346203B102B07D80146994041
S31500002070414B194240D101E07F2B09D82346303B22
S31500002080092B12D820210D430A215143CA1833E0E7
S315000020904C2C22D0682C29D06A2C1ED07A2C2BD01E
S315000020A0742C29D06C2C1BD031E07A2C24D0002340
S315000020B02A2C29D02E2C27D04C2C0ED0682C15D0AB
S315000020C06A2C0AD06C2C0BD0742C15D0242C1ED163
S315000020D00499002915D1049216E0059980310AE089
S315000020E0A900059B19402943802504E06900059B4A
S315000020F01940294305020D433478761C002CAED1D5
S3150000210004E003998A422BD01A46F5E70024039986
S3150000211004980028029A2DD088428AD12020204394
S3150000212001466539032901D3612806D1009B186849
S31500002130C01D0721884308300DE0E0B2732807D0A0
S31500002140642803D0692801D0632801D028060BD45F
S31500002150009B1868001D019E18600399491C68E7DA
S31500002160632403990846D4E7A9B2009B1868890539
S31500002170DED4EFE706B0F0BD89280100F0B503AF65
S3150000218087B014460D461F2600931E400196049400
S315000021900690002429463246234600F00DFF0390A0
S315000021A0029132460594234600F0EBFE069A101A79
S315000021B0092802D90099401A3730049C3030207023
S315000021C0641C019E901B059885410398029DDED2F2
S315000021D0204607B0F0BDFFFFF0B503AF8DB01D463A
S315000021E0064630200C9250714E480C460990044029
S315000021F00A914800430D18463043204331220028F7
S3150000220009D04948002B08D031220C994A711B1875
S315000022100B93322204E00B9301E0401C0B900C99C7
S3150000222000200A9BDB0F0B71002D03D40C2D03D964
S315000022300D2547E0054645E000920893C0430A9005
S31500002240A90033200191421A059202200021029131
S3150000225000F069FE0A464142069102990B469341F7
S3150000226007930A9BC01804902E48424122400392CD
S315000022700120059A00F057FE024604983040101AD5
S315000022800846039B98410CD334200591019904928A
S31500002290421A3046214600F05DFE049A0599C007B1
S315000022A00AD096194C410A98801B0998A04103D27E
S315000022B00C990098487100E00C99089B0698064016
S315000022C007980440012080020B9A824203D12643DC
S315000022D020D008201FE0B8680D21002918D00F2251
S315000022E0324001D1A9420DDC0A2A02D3121A573212
S315000022F000E030320C9B5B185A71A9420A4600DC9A
S315000023002A46154632092307D6182409491EE4E74A
S315000023100C9902E00420C01808710B980860284642
S315000023200DB0F0BDFFFF0F0001FCFFFFD0B502AFFF
S3150000233042180346002906D01C78002C02D0491EFC
S315000023405B1CF7E71A46101AD0BDFFFFF0B503AFC6
S31500002350A5B00C920446EF4A0E4616401B90344335
S31500002360CD0F4800400D2246002C0AD1002808D186
S3150000237030200C99487100200860A81C08710123C0
S3150000238033E2E549884203D1002A22D0082021E021
S31500002390079306950025EB43511E8A4116920121AB
S315000023A002280B9100D32946DA4AD543DA431B9B10
S315000023B09B1A3246AA41002800D01B93002800D061
S315000023C016461B9A920FB300D44D002807D0441925
S315000023D006E0042040190C990871002305E26C1CE4
S315000023E0169808431690B868089098181A901B9A81
S315000023F011460B9801400491900018900920C043A3
S315000024001390002C3ED4204600F02AFB032C00D962
S31500002410401E0990099800F02FFB19901CAD0998F1
S31500002420294600F0C7FB1698029020A8019022A822
S3150000243000900998001B199943187C331B98314664
S315000024402A4600F0EFF919901B91099815284FD8E4
S31500002450189D28461A9E314600F0D4F92A46890767
S31500002460800840181399491D4143E942079C54D1FD
S315000024701046314600F008FB00250999884263D2D0
S315000024802E467EE06542284600F0F0FA0146179493
S31500002490601C00D0491E6D1A28460C4600F0ECFA66
S315000024A019901CA928460D4600F008FB16980290C4
S315000024B020A8019022A800901998231A7D331B9812
S315000024C031462A4600F0AEF9224619901B91012C9E
S315000024D012D8049800280B9E079C169D30D0002524
S315000024E02298401E22902398A84123900B9E27E015
S315000024F000263546079C44E03E2A1ED80025E843C0
S315000025000146224600F00FFD1A9A8A431899814324
S31500002510114322464E424E4111E00498002815D13F
S315000025201698C043314600268018B14100F0ACFA37
S315000025300999884224D3012523E000263546079CC5
S315000025401798101809901CE001261AE0254602206B
S3150000255002431046314600F097FA00262399229C42
S31500002560631E0A461896B241099EB04200D223461F
S315000025702293099B98422C4600D20A462392189E23
S315000025803546F86805900898002821460ED0199817
S315000025901B9900F052FA0999059A8918081801281A
S315000025A000DC01208442214600DB014618960A9190
S315000025B0169521981590209C2399229A00201A900E
S315000025C017900D900F9210460E9100F011F90646E5
S315000025D00D4614942046159900F00AF90446129601
S315000025E0801B109108461195A84103D20D98199D9C
S315000025F01A9E10E0199D28461B9900F01EFA0A99AA
S3150000260088422EDD00290B981A9E04D128461B9974
S3150000261008430B9827D00F9020461A962E46139DF6
S315000026206843149940184142414116980840169053
S315000026301798C0B241424141189808401890304658
S315000026401B9900F0D5F81B914543A91917911A99C2
S31500002650491C1A9110991591129A119919900F986F
S31500002660AFE71A9E01E000251B951698C007149C3B
S315000026702AD01A961995159E2046314600F0B8F8CC
S315000026802246044613986043D0421FD10D46179840
S31500002690C0B2414241411898084018900F980E99CF
S315000026A000F0A6F80F900E91199E30461B9900F087
S315000026B09FF81B9113994143891917911A99491C3F
S315000026C01A912E461990D7E7189B03E0159618AE77
S315000026D068CE14461798C0B2411F4A1E9141DA07C8
S315000026E000D10B9900290B9900D129460D9AD207E2
S315000026F00CD16C401B9A159B5340234306D1049B77
S315000027005A425A41169B1A40012A0CD1042807D86E
S31500002710002006E0FFFF0F00FF070000CBFBFFFFD6
S31500002720012001400B9109983018199000220B9E48
S31500002730A8191B991A92514104461B9100F07DF984
S315000027400546002E20D00A998D421EDD08980028E5
S315000027502246199C08D0059820184019C1178843AD
S315000027600799814200DB01468D4210DD0023501D92
S315000027700E461B9959410A2200F01EFC02461B9187
S3150000278031466D1E641C02E00A992246199C8D4250
S3150000279000DB0D462BB21E1D20B2401E16901A9865
S315000027A0179398421BDA0A2500241A9010461B99A3
S315000027B018922A46234600F0FFFB19901B912A46E1
S315000027C0234600F0DEFB179B1899081A30210143B7
S315000027D00C9881551A98761E401C199AE1E70C99B7
S315000027E0069808711698C0180860184625B0F0BDFE
S315000027F080B500AF00F006F84A07C0088018C9087F
S3150000280080BDFFFFF8B504AF02AA0092034A044B4D
S3150000281000F04EFA0399029804B080BDCDCCCCCC22
S31500002820CCCCCCCCF0B503AF93B008931646126867
S31500002830736810AC0094C40F49000C194500284673
S31500002840214600F035FA09900A91B2680796F368B6
S3150000285011980D9010980C900EA8009028462146CD
S3150000286000F026FA00230F9C0E9A0692561C059439
S315000028705C410B940C9A84180D9841410120119AE1
S31500002880109D0C94651B0D919141049000D3184640
S3150000289000280B9900D1059902930B910F910028FE
S315000028A000D1069E05960E960799086803904B6818
S315000028B08868C968089C413C069400940C9E80195F
S315000028C00D9C6141099A039D52190A9A5341029B34
S315000028D058415941821B0A46A241049E00D31E4616
S315000028E0059D6A1C0B9C6341002E00D12346002ED9
S315000028F0089C00D12A4600F011FABA6803C2F868AB
S315000029000B903869012836D1079A03CA04911168D9
S3150000291054680F9A07920E9A0892069A00920C9A99
S31500002920531A0D9AA2410024591E05911146A14140
S315000029300126099D281A0A98049DA841304600D30D
S3150000294020460028059D00D11D46002800D11146CD
S315000029500C98401B0D988841089B00D326465A1EAA
S3150000296007980346A341002E00D1089A002E00D1F5
S315000029700346284653E00798036842688168C068A2
S3150000298004900F9807900E980590403C0094099D7E
S31500002990E80F0A9C640024186E0001200025F31A33
S315000029A094410890044600D32C4628460C9DEA0F15
S315000029B00D9B5B009E186A000A9BDB0FD218531A08
S315000029C03146049DA9415D1E0A950D460990854133
S315000029D0002C00D10D46002C00D10A930A98111A3A
S315000029E03146A9410898014600D309990C9BD21A91
S315000029F00D9A964100D30998059B5A001418D80FD2
S31500002A00079A52001018621E0346099EB341002918
S31500002A1000D12246002900D103460A98294600F033
S31500002A207DF90B9A03C20F9B0E9A069800900C989C
S31500002A300D9900F073F913B0F0BDF8B504AF0C466C
S31500002A40054600210A2001262A1A22468A4105D374
S31500002A500A22002300F095FA761CF5E73046F8BD09
S31500002A6001494143880C7047413401000149414303
S31500002A70080D7047FB2E0B0002494143C80C401C51
S31500002A807047C0464F931200F8B504AF0022D443F6
S31500002A90084D094E054A064B00F073FA641C821B6A
S31500002AA00A46AA41F6D32046F8BDC046CDCCCCCCCA
S31500002AB0CCCCCCCC3333333334333333F0B503AFF0
S31500002AC08DB00D4606461A24214600F05BF92246D3
S31500002AD04243000134490C18964208D1E068E86088
S31500002AE0A068A860606868602068286059E006955C
S31500002AF00AA8009001960592B01AC0002B490D58FD
S31500002B0008184668A268E3682846314600F0D0F8FF
S31500002B100790029108A800900CCC2846314600F098
S31500002B20C7F8049003910021099D0898079A801818
S31500002B3007900298454108464841012805D10A9860
S31500002B40401C0A900B9848410B90019C204602912C
S31500002B50FFF792FF06460598FFF78EFF301A05909D
S31500002B60009004980399079A2E462B4600F0D6F853
S31500002B70220992000E4B9A582307DB0EDA400323F4
S31500002B801340C018069D28600298414169600B9B5E
S31500002B900A9A059800900798314600F0BFF8A86099
S31500002BA0E9600DB0F0BDC04688490000584A0000F3
S31500002BB0284B0000F0B503AF8DB0079106461930DB
S31500002BC01A25294600F0DEF84543000135490C1860
S31500002BD0B54209D1E0680799C860A0688860606856
S31500002BE04860206808605AE00AA800900496A81B6E
S31500002BF0C0002D490E58081841680391A268E36881
S31500002C00304600F055F80590069108A8009009CCCA
S31500002C100024421EA3413046039900F049F8039070
S31500002C20029109990898059A8018059006984141DD
S31500002C30069120466041012805D10A98401C0A9059
S31500002C400B9860410B902846FFF716FF054626466F
S31500002C50049C2046FFF710FF281A01900090039865
S31500002C600299059A069B00F059F8C943C043220908
S31500002C7092000E4B9A582307DB0EDA4003231340CB
S31500002C80181A079D28608E416E600B9B0A9A019860
S31500002C9000900598069900F041F8A860E9600DB02B
S31500002CA0F0BDC046804B0000584A0000704C000042
S31500002CB0F0B503AF85B0049315460E460246029062
S31500002CC0002428462146234600F05BF90390019133
S31500002CD0284621463246234600F053F90D4601990F
S31500002CE0081801906541049821463246234600F0B3
S31500002CF048F90E462D18664104982146029A234645
S31500002D0000F03FF9019A12186141B868691801602C
S31500002D10664146600398114605B0F0BDFEB506AFA4
S31500002D2002930192BE68324600F014F904460D463D
S31500002D304020821B0198029900F0F5F820432943B0
S31500002D4003B0F0BD80B500AF0B4611461A4600F041
S31500002D5012F880BD80B500AF0A46002100F00BF8DE
S31500002D6080BDD0B502AF00239A4203D0CC5CC454D8
S31500002D705B1CF9E7D0BD00239A4202D0C1545B1C0C
S31500002D80FAE77047012925D300D17047884201D25E
S31500002D9000207047024684465FA00130130C8B4228
S31500002DA001D31A00A038130A8B4201D31A005038F7
S31500002DB013098B4201D31A00283893088B4201D39A
S31500002DC01A00143853088B4200D30A3802006046B2
S31500002DD000231047002080B500F0EDF880BDC04606
S31500002DE000BFCA07904200D3801A5B418A0790420F
S31500002DF000D3801A5B414A07904200D3801A5B4198
S31500002E000A07904200D3801A5B41CA06904200D35B
S31500002E10801A5B418A06904200D3801A5B414A06BB
S31500002E20904200D3801A5B410A06904200D3801A72
S31500002E305B41CA05904200D3801A5B418A059042E5
S31500002E4000D3801A5B414A05904200D3801A5B4149
S31500002E500A05904200D3801A5B41CA04904200D30F
S31500002E60801A5B418A04904200D3801A5B414A046F
S31500002E70904200D3801A5B410A04904200D3801A24
S31500002E805B41CA03904200D3801A5B418A03904299
S31500002E9000D3801A5B414A03904200D3801A5B41FB
S31500002EA00A03904200D3801A5B41CA02904200D3C3
S31500002EB0801A5B418A02904200D3801A5B414A0223
S31500002EC0904200D3801A5B410A02904200D3801AD6
S31500002ED05B41CA01904200D3801A5B418A0190424D
S31500002EE000D3801A5B414A01904200D3801A5B41AD
S31500002EF00A01904200D3801A5B41CA00904200D377
S31500002F00801A5B418A00904200D3801A5B414A00D6
S31500002F10904200D3801A5B410A00904200D3801A87
S31500002F205B411846704710B5034690060BD4002A3D
S31500002F300ED091402020801A1C46C4400C431846EF
S31500002F409040214610BD203A93400020194610BDFE
S31500002F50184610BD10B50B4691060BD4002A0ED0AC
S31500002F60D0402021891A1C468C400443D340194680
S31500002F70204610BD203AD3400021184610BD194600
S31500002F8010BDB0B5514343435918030C140C1D46EC
S31500002F906543491992B2534380B24243150CEB186C
S31500002FA01D0C49199BB260431818030CC91800047C
S31500002FB092B28018B0BD704740B584B002AE00969C
S31500002FC000F004F8029A039B04B040BDF0B587B048
S31500002FD006460C9D002919D00C46002A02921ED0E6
S31500002FE00095002B37D0054637460193184600F06A
S31500002FF045F90646204600F041F9361A202E53D3ED
S315000030000098002823D00560446020E0002B3CD0C7
S31500003010002D1CD0002103C5084607B0F0BD002BCB
S315000030204BD0002E00D1B6E05A1E134200D0C1E0AC
S31500003030002D01D0224005C5002B00D1E8E0584202
S31500003040184085494143C80E84A1085CE1E0002090
S31500003050014607B0F0BD1146521E11422FD121463E
S31500003060009C002C02D0002332400CC4029A012A94
S3150000307000D18EE0002A00D1D0E050421040764ABE
S315000030804243D00E75A2125CC9E03446114616467C
S31500003090FFF778FE002D04D000214643A21B2A60CC
S315000030A06960002107B0F0BD701C002220281AD1EB
S315000030B02020069411462B4622E007B0F0BD0746B5
S315000030C001933546084600F0D9F80646204600F03A
S315000030D0D5F8301A21300022202800D088E02020A0
S315000030E0069411460BE03946C14023461F2466402C
S315000030F01C46B4400C430694C340B74019463B46B1
S3150000310000240DE0FF0F049A530025461D43D30FFC
S31500003110039A5200D318401E3C462A4605991BD0F6
S31500003120049202460698C50F49004E190393D90F1B
S3150000313045006D180298291A0691334601998B416C
S315000031400593F743EB431B184F4100D40596002F18
S315000031501046D7D40695D5E71A460023D8430490DF
S31500003160401C1E465E41EC0F26405200B6186A000F
S31500003170009D002D04D00392069A2A60039A696086
S3150000318004994D1E9B411C40264331462A40174355
S31500003190384307B0F0BD204626461C461946FFF7C1
S315000031A0F1FD002D03D000214443321B06C500214A
S315000031B007B0F0BD0095054637460193184600F066
S315000031C05DF80646204600F059F8311A1F2900D34B
S315000031D016E7481C3B46C3401F254D402146A940E3
S315000031E0194306913B46C440AB400022214687E77F
S315000031F023461F281ED82946C1402024241A1E46CD
S31500003200A6400E430696C340A54019462B4677E7CF
S315000032102020C4400021204607B0F0BD20221F23F5
S3150000322010461840C6409343480098403043D1406A
S3150000323007B0F0BD0146203917462A46CA40402449
S31500003240241A1E46A6401643CB40A540069339468F
S315000032502A46334654E7C04631B57C0700011C02B6
S315000032601D0E18031E16140F191104081F1B0D1727
S31500003270151310071A0C12060B050A0970B5010C76
S315000032804A424A41110110224A40D040FF2212020E
S31500003290024053425341DA0008235340D840F023FA
S315000032A003405C425C41A30004245C40E0400C24E3
S315000032B00440654265416C00022526466E40F0409A
S315000032C02D1A40080126F6430643701C2840511863
S315000032D0C9180919081870BD00000805352E382EC2
S315000032E030004275696C7420776974682052656E87
S315000032F06573617320416476616E63656420466C14
S31500003300657869626C6520536F66747761726520B3
S315000033105061636B6167652076657273696F6E20B5
S31500003320352E382E300046616E0054656D700048AB
S31500003330756D00696E6600257500442054656D70D4
S31500003340006E616E00426F6F74696E672E2E2E00DE
S31500003350286E756C6C2900FF01554C0001000000B9
S315000033600D090000440100000E09000044010000A0
S3150000337000000000A086010000000000010200001D
S315000033801A000000000000000000000059060000BE
S315000033900000000058330000010000000240002039
S315000033A000030000022902280000FFDF00000000E1
S315000033B000000000290F0000000000009833000004
S315000033C004000000080000000400000009000000DE
S315000033D0000000000A000000008000000B00000052
S315000033E0008000000C000000008000000D000000BE
S315000033F0008000000E000000004000000F000000EA
S315000034001000000000010000100000000101000093
S31500003410100000000201000010000000030100007F
S315000034200001000008010000100000000901000072
S31500003430100000000A010000100000000C0100004E
S315000034400040000000020000100000000102000021
S315000034500000000006020000000200000702000053
S315000034600402000008020000000400000C02000034
S31500003470040400000D020000000000000E0200001F
S31500003480000000000F020000000100000003000021
S315000034900401000007040000000100000D090000FF
S315000034A0000100000E0900001D000000C0330000EE
S315000034B00000000000206040002010300828183866
S315000034C000000000000000000000000000000000F6
S315000034D00000000000100010001000100010001086
S315000034E0000000100000000000280028002800004E
S315000034F0000000000000000000000000002400247E
S31500003500007C00240048007C0048004800000000C1
S31500003510003800540050003800140054005400389D
S31500003520001000000020005400580030002800540D
S3150000353000140008000000000010002800280010F9
S31500003540003400480048003400000000001000105D
S315000035500010000000000000000000000000000055
S31500003560000800100020002000200020002000207D
S3150000357000100008002000100008000800080008DD
S315000035800008000800100020001000380010002875
S315000035900000000000000000000000000000000025
S315000035A000100010007C0010001000000000000059
S315000035B000000000000000000000000000000010F5
S315000035C0001000100000000000000000000000389D
S315000035D000000000000000000000000000000000E5
S315000035E000000000000000100000000000080008B5
S315000035F00010001000100010002000200000000045
S31500003600003800440044005400440044004400389C
S3150000361000000000001000300050001000100010E4
S3150000362000100010000000000038004400440004B0
S31500003630000800100020007C000000000038004454
S3150000364000040018000400040044003800000000D4
S3150000365000080018002800280048007C0008000820
S3150000366000000000007C00400040007800040004D8
S315000036700044003800000000003800440040007894
S31500003680004400440044003800000000007C0004B0
S31500003690000800100010002000200020000000009C
S315000036A00038004400440038004400440044003818
S315000036B0000000000038004400440044003C0004C0
S315000036C00044003800000000000000000010000068
S315000036D000000000000000100000000000000000D4
S315000036E00000001000000000000000100010001094
S315000036F000000000000C003000400030000C00000C
S3150000370000000000000000000000007C0000007CBB
S31500003710000000000000000000000000006000182B
S31500003720000400180060000000000000003800449B
S315000037300004000800100010000000100000000047
S3150000374000380044004C0054005C00400040003843
S315000037500000000000100028002800280028007C37
S315000037600044004400000000007800440044007853
S315000037700044004400440078000000000038004483
S3150000378000400040004000400044003800000000B7
S3150000379000700048004400440044004400480070A3
S315000037A000000000007C00400040007C004000401B
S315000037B00040007C00000000007C004000400078D3
S315000037C00040004000400040000000000038004477
S315000037D000400040005C0044004400380000000047
S315000037E0004400440044007C00440044004400447B
S315000037F0000000000038001000100010001000103B
S31500003800001000380000000000040004000400045A
S315000038100004000400440038000000000044004892
S3150000382000500060005000480048004400000000BE
S315000038300040004000400040004000400040007C46
S31500003840000000000044006C006C0054004400447A
S31500003850004400440000000000440064006400547A
S315000038600054004C004C00440000000000380044A6
S3150000387000440044004400440044003800000000B6
S3150000388000780044004400440078004000400040B6
S315000038900000000000380044004400440044004496
S315000038A0005400380004000000780044004400443E
S315000038B0007800480048004400000000003800443A
S315000038C000400030000800040044003800000000FA
S315000038D0007C0010001000100010001000100010F6
S315000038E0000000000044004400440044004400443A
S315000038F00044003800000000004400440044002852
S3150000390000280028001000100000000000440044B9
S31500003910005400540054006C0028002800000000E9
S315000039200044002800280010001000280028004449
S315000039300000000000440044002800280010001089
S315000039400010001000000000007C000400080010B9
S31500003950001000200040007C00000000001800104D
S3150000396000100010001000100010001000100018C9
S3150000397000200020001000100010001000080008B1
S3150000398000000000003000100010001000100010B1
S31500003990001000100010003000100028002800441D
S315000039A00000000000000000000000000000000011
S315000039B0000000000000000000000000000000FE03
S315000039C000200010000000000000000000000000C1
S315000039D0000000000000000000380044003C0044E5
S315000039E0004C003400000000004000400058006415
S315000039F0004400440064005800000000000000007D
S31500003A000038004400400040004400380000000038
S31500003A10000400040034004C00440044004C003410
S31500003A20000000000000000000380044007C004058
S31500003A300044003800000000000C0010007C00105C
S31500003A400010001000100010000000000000000030
S31500003A500034004C00440044004C0034000400785C
S31500003A600040004000580064004400440044004404
S31500003A700000000000100000007000100010001090
S31500003A800010001000000000001000000070001080
S31500003A900010001000100010001000E00040004070
S31500003AA0004800500060005000480044000000003C
S31500003AB00070001000100010001000100010001020
S31500003AC0000000000000000000780054005400547C
S31500003AD0005400540000000000000000005800647C
S31500003AE000440044004400440000000000000000C0
S31500003AF00038004400440044004400380000000040
S31500003B0000000000005800640044004400640058AF
S31500003B1000400040000000000034004C0044004417
S31500003B20004C00340004000400000000005800644B
S31500003B30004000400040004000000000000000007F
S31500003B40003800440030000800440038000000003F
S31500003B50002000200078002000200020002000180F
S31500003B60000000000000000000440044004400443F
S31500003B70004C003400000000000000000044004437
S31500003B8000280028002800100000000000000000A7
S31500003B90005400540054006C002800280000000067
S31500003BA00000000000440028001000100028004417
S31500003BB00000000000000000004400440028002827
S31500003BC0001000100010006000000000007C0008DB
S31500003BD0001000200040007C0000000000180010CB
S31500003BE00010001000200020001000100010001827
S31500003BF0001000100010001000100010001000103F
S31500003C00001000100030001000100010000800081E
S31500003C1000100010001000300000000000000074CA
S31500003C20004C000000000000000000000000000042
S31500003C30000000000000000000000000000000007E
S31500003C40000000000000000000000000000000006E
S31500003C500000000C000C000C000C000C000C000C0A
S31500003C60000C000C000C000C0000000C000C000006
S31500003C70000000000000001B001B001B001B001BB7
S31500003C80000000000000000000000000000000002E
S31500003C900000000000000000000080198019801953
S31500003CA08019C07FC07F80190033C07FC07F00337A
S31500003CB00033003300330000000000000000001E47
S31500003CC0003F807580650074003C001E000780057B
S31500003CD0806580658075003F001E000400040000BA
S31500003CE00000007000D840D8C0D880D90073000604
S31500003CF0000C801BC036C066C046C00680030000AC
S31500003D00000000000000001E003F003300330033B7
S31500003D10001E000CC03CC066806380618063C03EAC
S31500003D20801C0000000000000000000C000C000CCD
S31500003D30000C000C00000000000000000000000065
S31500003D4000000000000000000000000080000001EC
S31500003D500003000600060004000C000C000C000C1A
S31500003D60000C000C000400060006000300018000A1
S31500003D70002000100018000C000C000400060006CD
S31500003D8000060006000600060004000C000C0018E1
S31500003D90001000200000000C002D003F001E003324
S31500003DA0000000000000000000000000000000000D
S31500003DB00000000000000000000000000000000CF1
S31500003DC0000C000C000CC0FFC0FF000C000C000C27
S31500003DD0000C0000000000000000000000000000D1
S31500003DE000000000000000000000000000000000CD
S31500003DF0000000000000000C000C00040004000895
S31500003E0000000000000000000000000000000000AC
S31500003E100000001E001E0000000000000000000060
S31500003E20000000000000000000000000000000008C
S31500003E300000000000000000000000000000000C70
S31500003E40000C000000000000000000030003000357
S31500003E500006000600060006000C000C000C000C14
S31500003E600018001800180000000000000000001EE6
S31500003E70003F0033806180618061806D806D80616C
S31500003E80806180610033003F001E000000000000DA
S31500003E9000000006000E001E003600260006000682
S31500003EA000060006000600060006000600060000E2
S31500003EB0000000000000001E003F807380618061EA
S31500003EC0800100030006000C001800300060807FAF
S31500003ED0807F0000000000000000001C003E006320
S31500003EE000630003000E000E000380018001806164
S31500003EF08073003F001E0000000000000000000666
S31500003F00000E000E001E001E00160036003600666B
S31500003F10807F807F0006000600060000000000008B
S31500003F200000007F007F006000600060006E007F80
S31500003F3080638001800180618073003F001E000065
S31500003F40000000000000001E003F8033806100601A
S31500003F50006E007F80738061806180618033003FE6
S31500003F60001E0000000000000000807F807F8001AE
S31500003F700003000300060006000C000C000C0008FD
S31500003F800018001800180000000000000000001EC5
S31500003F90003F8063806180610021001E003F8061D8
S31500003FA0806180618061003F001E0000000000000B
S31500003FB00000001E003F0073806180618061807395
S31500003FC0803F801D800180610073003F001E00005D
S31500003FD00000000000000000000000000000000CCF
S31500003FE0000C000000000000000000000000000CB3
S31500003FF0000C0000000000000000000000000000AF
S3150000400000000000000C000C000000000000000092
S315000040100000000C000C0004000400080000000072
S315000040200000000080008003000E003800600038A9
S31500004030000E800380000000000000000000000069
S3150000404000000000000000000000807F807F00006C
S315000040500000807F807F000000000000000000005C
S31500004060000000000000000000000000004000709A
S31500004070001C000780010007001C007000400000C3
S3150000408000000000000000000000001F803FC0711B
S31500004090C060C000C00180030007000E000C000CC9
S315000040A00000000C000C0000000000000000001ED4
S315000040B0003F803180718063806F806D806D806F7E
S315000040C0806700600032003E001C00000000000017
S315000040D00000000E000E001B001B001B001B8031A1
S315000040E08031803F803F8031C060C060C06000008A
S315000040F0000000000000007C007E00630063006397
S315000041000063007E007E0063806180618063007FC3
S31500004110007E0000000000000000001E003F80310D
S315000041208061006000600060006000600060806187
S315000041308031003F001E0000000000000000007CEF
S31500004140007F00638063806180618061806180613F
S31500004150806100630063007E007C000000000000B8
S315000041600000807F807F0060006000600060007F4C
S31500004170007F0060006000600060807F807F00003C
S31500004180000000000000807F807F0060006000600B
S315000041900060007F007F00600060006000600060DB
S315000041A000600000000000000000001E003F80319B
S315000041B08061006000600060806380638061806170
S315000041C08031803F001E000000000000000080617A
S315000041D080618061806180618061807F807F806195
S315000041E08061806180618061806100000000000064
S315000041F00000003F003F000C000C000C000C000CFF
S31500004200000C000C000C000C000C003F003F0000EE
S315000042100000000000008001800180018001800113
S315000042208001800180018001806180618073003F90
S31500004230001E0000000000000000C06080610063F6
S3150000424000660066006C0078007C0066006600630D
S3150000425080618061C0600000000000000000006016
S315000042600060006000600060006000600060006048
S31500004270006000600060807F807F0000000000001A
S315000042800000C071C071C07BC07AC06AC06AC06ECF
S31500004290C064C060C060C060C060C060C060000034
S315000042A0000000000000807180718079807980793B
S315000042B0806D806D806D80658067806780678063B4
S315000042C080630000000000000000001E003F003375
S315000042D080618061806180618061806180618061D0
S315000042E00033003F001E0000000000000000007EBA
S315000042F0007F80638061806180618063007F007ED3
S3150000430000600060006000600060000000000000C7
S315000043100000001E003F0033806180618061806183
S3150000432080618061806580670033803F401E0000A9
S31500004330000000000000007E007F806380618061D5
S315000043408063007F007E0066006300638061806199
S31500004350C0600000000000000000000E001F803159
S31500004360803100300038001E0007800380618061C4
S315000043708031003F001E0000000000000000C0FF6A
S31500004380C0FF000C000C000C000C000C000C000C14
S31500004390000C000C000C000C000C000000000000DB
S315000043A000008061806180618061806180618061E0
S315000043B080618061806180618073003F001E000023
S315000043C0000000000000C060C060C0608031803125
S315000043D08031001B001B001B001B000E000E000E90
S315000043E000040000000000000000C0C0C0C0C0C043
S315000043F0C0C0C0C0C0CC804C804C805E8052805211
S315000044008073806180610000000000000000C0C071
S31500004410806080610033003B001E000C000C001E13
S31500004420001F003B80718061C0C0000000000000DA
S315000044300000C0C08061806100330033001E001E92
S31500004440000C000C000C000C000C000C000C000012
S31500004450000000000000803F803F80010003000351
S315000044600006000C000C0018001800300060807F69
S31500004470807F000000000000000F000F000C000C01
S31500004480000C000C000C000C000C000C000C000CC6
S31500004490000C000C000C000C000F000F00000018B0
S315000044A000180018000C000C000C000C000600069A
S315000044B000060006000300030003000000000000E1
S315000044C0001E001E00060006000600060006000686
S315000044D000060006000600060006000600060006A6
S315000044E0001E001E0000000C000C001E001200330F
S315000044F000338061806100000000000000000000C1
S3150000450000000000000000000000000000000000A5
S315000045100000000000000000000000000000000095
S315000045200000000000000000E0FF0000000000386E
S315000045300018000C00000000000000000000000051
S315000045400000000000000000000000000000000065
S3150000455000000000000000000000001F803F806196
S315000045608001801F803F80618063807FC0380000AB
S315000045700000000000000060006000600060006E47
S31500004580007F807380618061806180618073007FBD
S31500004590006E0000000000000000000000000000A7
S315000045A00000001E003F8073806100600060806133
S315000045B08073003F001E0000000000000000800124
S315000045C0800180018001801D803F80738061806151
S315000045D0806180618073803F801D000000000000C4
S315000045E000000000000000000000001E003F0073F5
S315000045F08061807F807F00608071003F001E000028
S31500004600000000000000C007C00F000C000C807FF7
S31500004610807F000C000C000C000C000C000C000C41
S31500004620000C000000000000000000000000000078
S31500004630801D803F807380618061806180618073AE
S31500004640803F801D80018063007F003E0000006087
S31500004650006000600060006F807F80718061806113
S3150000466080618061806180618061000000000000DF
S3150000467000000006000600000000003E003E0006A6
S3150000468000060006000600060006000600060000FA
S31500004690000000000006000600000000003E003E8C
S315000046A000060006000600060006000600060006D4
S315000046B000060046007E003C0000006000600060CE
S315000046C00060806100630066006C007C0076006319
S315000046D000638061C0600000000000000000003E32
S315000046E0003E00060006000600060006000600065C
S315000046F00006000600060006000600000000000096
S315000047000000000000000000000080DDC0FFC0CEF9
S31500004710C0CCC0CCC0CCC0CCC0CCC0CCC0CC0000BF
S315000047200000000000000000000000000000006F14
S31500004730807F80718061806180618061806180613D
S315000047408061000000000000000000000000000082
S315000047500000001E003F807380618061806180617F
S315000047608073003F001E00000000000000000000F3
S3150000477000000000006E007F8073806180618061B0
S3150000478080618073007F006E0060006000600060E2
S315000047900000000000000000801D803F80738061E3
S315000047A08061806180618073803F801D800180010F
S315000047B0800180010000000000000000000000678A
S315000047C0803F0039003000300030003000300030CB
S315000047D000300000000000000000000000000000A3
S315000047E00000001E803F80610060007F803F8001E6
S315000047F08061007F001E0000000000000000000035
S31500004800000800180018007F007F00180018001824
S31500004810001800180018801F800F0000000000001C
S3150000482000000000000000000000806180618061DF
S3150000483080618061806180618063807F803D00004F
S315000048400000000000000000000000000000C06042
S31500004850803180318031001B001B001B000E000ED2
S31500004860000600000000000000000000000000003C
S31500004870000080DD80DD80DD0055005500550077A5
S315000048800077002200220000000000000000000067
S31500004890000000000000806100330033001E000CA1
S315000048A0000C001E00330033806100000000000091
S315000048B0000000000000000080618061803100334C
S315000048C00033001B001B001B000E000E000E001C18
S315000048D0007C007000000000000000000000C07FA7
S315000048E0C07F800100030006000C00180030C07F66
S315000048F0C07F00000000000080038007000600065D
S31500004900000600060006000E001C001C000E000635
S315000049100006000600060006800780030006000663
S315000049200006000600060006000600060006000651
S315000049300006000600060006000600060006000641
S315000049400038003C000C000C000C000C000C000EA3
S3150000495000070007000E000C000C000C000C000CF9
S31500004960003C0038000000000000000000000000CD
S3150000497000008038807F0047000000000000000033
S315000049800000000000000000000000000000000021
S315000049900000000000000010000000000000000001
S315000049A0B9340332B7F4AD1410DB1AB30892540EBF
S315000049B00D307D951447BA1A66088F4D26ADC66D23
S315000049C0F598BF85E2B74511CA96853D92BD1DEBA8
S315000049D0FCA11860DCEF52163C92AE220BB8C1B4B3
S315000049E0839D2D5B0562DA1C304C7E8F4E8BB25B4D
S315000049F016F4529F8B56A512FBD4827643ED8AF0AD
S31500004A008FE7F9311565191850F19BD94A13EEB4A1
S31500004A10284CF0A686C1251F035FC270CB9E49169F
S31500004A20E642889C44EB2014B0650836AD6EA58539
S31500004A3085F0CA14E2FD031A0B899979D5B13D09AF
S31500004A40D8DA973A35EBCF10AC363F5E73BB38CF2A
S31500004A503E6752FA44AFBA1501000000000000009C
S31500004A600500000000000000190000000000000022
S31500004A707D00000000000000710200000000000040
S31500004A80350C000000000000093D00000000000099
S31500004A902D31010000000000E1F5050000000000D6
S31500004AA065CD1D0000000000F90295000000000021
S31500004AB0DD0EE90200000000514A8D0E00000000E4
S31500004AC09573C24800000000E941CC6B010000006C
S31500004AD08D49FD1A07000000C16FF2862300000011
S31500004AE0C52EBCA2B1000000D9E9AC2D78030000A8
S31500004AF03D9160E45811000031D6E275BC560000C5
S31500004B00F52E6E4DAEB10100C9EA2683677808001E
S31500004B10ED95C28F055A2A00A1EDCCCE1BC2D3005B
S31500004B2025A4000A8BCA2204000000000000000031
S31500004B30000000000000000000000040955969597F
S31500004B40555554551555555604051541105455409F
S31500004B504551554440455044505555450040004048
S31500004B6040044496655556554540455451411540B7
S31500004B70559155555555405105010000000000005E
S31500004B8001000000000000000000000000000020FE
S31500004B90345065C05FC9A652BB13CBAEC440C21821
S31500004BA006C8DF7100D5A87CF56F0FDA58FC27130D
S31500004BB06E4756357D24206502C7E768E48CA41D40
S31500004BC0E9E60268D7CD39617977FCC2405BEF161A
S31500004BD0798CDE43FFA751F991F3B278F5BDBE118A
S31500004BE0E857E9D6E8BEE87BB054AC8F848D751BD8
S31500004BF0EA23A499E9F9D38BB7A3714061DA3E158C
S31500004C00CEE33ECB73F948088C97B427D51B7010BA
S31500004C10A2BFEFB9EB8532154DB44DB49BBB6F19EE
S31500004C2096B6076CF8E7EEAD36D9B4F59135AE1306
S31500004C30222218AF4E6A684D91DAAA3D4F40741E83
S31500004C409FBD9EE006A1C09857C2A7FDA40E90176F
S31500004C500E7D497173E3208FB220D87605143B127E
S31500004C60853D7434811343B0AD297A5F27F4351C32
S31500004C7054455454455505040010041014044000CE
S31500004C800000014055551541540400004400010040
S31500004C900000004041000044504445505400555522
S31500004CA05455655100400040010000010005010017
S31500004CB011545151545555050000000000000000E4
S30900004CC000000000EA
S31500004CC4010030D001000A0019006400E803000066
S31500004CD4070A0000C03400000B1200002C3C000040
S30600004CE4FFCA
S31501010018FFFFFFFFFFFFFFFFFFFFFFFFFFFFFFFFE0
S31101010028FFFFFFFFFFFFFFFFFFFFFFFFD0
S7050000029167
