S014000052413045315F436C617373322E7372656350
S31500000000F0530020A1020000B90100009D0200008B
S315000000109D0200009D0200009D0200009D0200005E
S315000000200000000000000000000000009D0200002B
S315000000309D020000000000009D020000E11B000080
S3150000004000000000000000000000000000000000AA
S31500000050000000000000000000000000000000009A
S31500000060000000000000000000000000000000008A
S31500000070000000000000000000000000000000007A
S31500000080000000000000000000000000C50E000097
S31500000090000000000000000000000000000000005A
S315000000A00000000000000000D91100000000000060
S315000000B000000000000000000000000039160000EB
S315000000C0000000000000000000000000000000002A
S315000000D0000000000000000000000000000000001A
S315000000E03D0D0000850D000040F623020F4B995C84
S315000000F00F4A890709D540F622015B5C1BB193685C
S315000001000C4A136070471369FAE740F62001595C00
S31500000110890705D540F61901595C5368CB40EFE7CE
S3150000012040F61801595C1368F8E7C04600E0014044
S31500000130504100201847002001380028FCD17047A4
S3150000014070B54143114B124D1B680C00B5FBF3F51E
S31500000150080040F2E8320023002101F007FF31B920
S31500000160B0FBF5F0800808B1FFF7E6FF70BDAD0003
S31500000170B4FBF5F040F2E8320023002101F0F6FE70
S315000001800029F0D001204042EEE7C0461847002083
S3150000019000CA9A3B10B5034B8200D35803B1984767
S315000001A010BDC04644460020024B80001950002076
S315000001B07047C04644460020F8B540F2401300247C
S315000001C00127084E084A758CD35A1D402B00E34080
S315000001D03B4202D0E0B2FFF7DDFF0134092CF5D136
S315000001E07586F8BDFE600040006000401F2243098E
S315000001F010401E3A8240024960339B005A507047B5
S3150000020000E100E0F7B5FF27019283080A4A0326BA
S315000002109B009B183A0040F200350640F600890123
S31500000220B2403940B1405C59800094430C435C5164
S31500000230019A024B1A50F7BD00E100E06C4600201F
S315000002401F22430910401E3A824002499B005A5021
S315000002507047C04600E100E010B50400FFF7C6FF96
S315000002602000FFF7EDFF10BD1F22430910401E3A84
S315000002708240044920339B005A50BFF34F8FBFF38F
S315000002806F8F704700E100E010B50400FFF7BAFF7A
S315000002902000FFF7E1FF10BD7047C04600BE704763
S315000002A010B501F0DFFA00F0B9FCFEE7FFFFFFFF33
S315000002B0FFFFFFFFFFFFFFFFFFFFFFFFFFFFFFFF48
S315000002C0FFFFFFFFFFFFFFFFFFFFFFFFFFFFFFFF38
S315000002D0FFFFFFFFFFFFFFFFFFFFFFFFFFFFFFFF28
S315000002E0FFFFFFFFFFFFFFFFFFFFFFFFFFFFFFFF18
S315000002F0FFFFFFFFFFFFFFFFFFFFFFFFFFFFFFFF08
S31500000300FFFFFFFFFFFFFFFFFFFFFFFFFFFFFFFFF7
S31500000310FFFFFFFFFFFFFFFFFFFFFFFFFFFFFFFFE7
S31500000320FFFFFFFFFFFFFFFFFFFFFFFFFFFFFFFFD7
S31500000330FFFFFFFFFFFFFFFFFFFFFFFFFFFFFFFFC7
S31500000340FFFFFFFFFFFFFFFFFFFFFFFFFFFFFFFFB7
S31500000350FFFFFFFFFFFFFFFFFFFFFFFFFFFFFFFFA7
S31500000360FFFFFFFFFFFFFFFFFFFFFFFFFFFFFFFF97
S31500000370FFFFFFFFFFFFFFFFFFFFFFFFFFFFFFFF87
S31500000380FFFFFFFFFFFFFFFFFFFFFFFFFFFFFFFF77
S31500000390FFFFFFFFFFFFFFFFFFFFFFFFFFFFFFFF67
S315000003A0FFFFFFFFFFFFFFFFFFFFFFFFFFFFFFFF57
S315000003B0FFFFFFFFFFFFFFFFFFFFFFFFFFFFFFFF47
S315000003C0FFFFFFFFFFFFFFFFFFFFFFFFFFFFFFFF37
S315000003D0FFFFFFFFFFFFFFFFFFFFFFFFFFFFFFFF27
S315000003E0FFFFFFFFFFFFFFFFFFFFFFFFFFFFFFFF17
S315000003F0FFFFFFFFFFFFFFFFFFFFFFFFFFFFFFFF07
S31500000400FFFFFFFFF7AFC1FF44F2501044F2501355
S31500000410C2F20000C2F2000310B5834205D040F2DA
S315000004200003C0F2000303B1984710BD44F2501018
S3150000043044F25013C2F20000C2F200031B1A9A10D3
S31500000440D90F8918491010B529B140F20003C0F23E
S31500000450000303B1984710BD10B544F26814C2F208
S315000004600004237873B9FFF7CFFF40F20003C0F210
S3150000047000032BB144F23400C0F2000000E000BFDC
S315000004800123237010BDC04640F20003C0F20003F2
S3150000049010B54BB144F26C1144F23400C2F20001C3
S315000004A0C0F2000000E000BFFFF7C0FF10BDC0466D
S315000004B010B501F057F810BD10B500F0EFFF10BDF4
S315000004C010B501F02DF810BD10B500F0FFFF10BDFE
S315000004D08278012312B9024A13707047014AFBE77A
S315000004E0854100208441002010B500F05FFF10BD5B
S315000004F010B500F0ADFF10BD10B500F099FF10BDAE
S3150000050010B500F043FF10BD10B500F0D5FE10BDCC
S3150000051010B500F007FF10BD10B500F0FBFE10BDD2
S31500000520F0B5024B87B01B8813B9FEE7602B0000BD
S3150000053040F2E832D74B1B68B3FBF2F38022013B53
S31500000540520493420DD2C021D34AD4485360036A61
S3150000055009061B021B0A0B43036200239360073341
S315000005601360CF49CF4800F06DFBCF49CF4800F06C
S31500000570BDFD04220021CE4BCE4C19705A70CE4BD5
S3150000058020601970013199700131D97001311971EA
S31500000590CA48CB495A705A71FFF7B6FFC949CA48CB
S315000005A0FFF7A2FF10B1C548FFF7B6FFC749C64817
S315000005B0FFF79EFF28B1C148FFF7AEFFC248FFF71D
S315000005C09FFFC349C348FFF773FFC349C148FFF7FD
S315000005D073FF40B1B948FFF79FFFBB48FFF790FF95
S315000005E0BC48FFF76DFFBD49BD4800F00BFB40B1AD
S315000005F0B248FFF791FFB448FFF782FFB548FFF70F
S315000006005FFFAE48FFF784FF58B1AC48FFF784FFA1
S31500000610B048FFF755FFB24800F0F8FAAA48FFF7CE
S315000006206FFFA948FFF768FF58B1A448FFF774FFAA
S31500000630A848FFF745FFAA4800F0E8FAA248FFF7E6
S315000006405FFFA448FFF740FF206058B19B48FFF7C3
S3150000065063FFA048FFF734FFA14800F0D7FA9A4895
S31500000660FFF74EFF9E4800F0D5FA206058B1934838
S31500000670FFF752FF9748FFF723FF994800F0C6FAA5
S315000006809148FFF73DFF3C23884A96495360964BB5
S3150000069002A81A7801F098FC944B954D1A78914966
S315000006A003A801F091FC2A788E4904A801F08CFC7D
S315000006B0904B91491A7805A801F086FC01F0C8FB19
S315000006C001F0BEFB0521002001F014FB01228B493D
S315000006D08B4801F05DFB14210A2001F00BFB01227F
S315000006E0884902A801F054FB0521462001F002FBCF
S315000006F001228249844801F04BFB1421502001F06D
S31500000700F9FA01227F4903A801F042FB28210020C3
S3150000071001F0F0FA012279497C4801F039FB3221D7
S315000007200A2001F0E7FA0122744905A801F030FB1E
S315000007302821462001F0DEFA01227049744801F0B2
S3150000074027FB3221502001F0D5FA01226B4904A87B
S3150000075001F01EFB01F056FB002301936D4A13784E
S3150000076063B300236C4813700778012F14D16B49CB
S315000007700A78561C0E70012A00D121E1022A00D106
S3150000078025E14AB9494A5033536049493B000222A0
S31500000790464800F096FC2060614F3B78012B0DD156
S315000007A0424A4F3353605F4B43491A783F48002310
S315000007B0023200F086FC002320603B705A4B1A7808
S315000007C0002A47D000221A70584B187801281AD1EF
S315000007D0574A1388013B9BB21380A3B9554B019925
S315000007E01B88554E1380554A014013880F0233402B
S315000007F03B43138013884F025149194039431180F6
S31500000800019B434001934F49CB8F9B070AD42B781A
S315000008100133DBB22B70CA8F9207FCD55A2B01D954
S315000008203C232B70484B1A78012A13D147490B7881
S315000008305F1C0F70012B00D1CCE0022B00D1D0E061
S3150000084043B91A4943324A6018484149423A00F0CE
S3150000085038FC20603F4B1A7832B100221A7001230F
S315000008603D4A11784B4013703C4B1A784AB100222E
S315000008701A703B4A1378013BDBB2002B00D149E1E9
S315000008801370384B1A78012A6ED100221A7001F0C3
S3150000089059F969E01847002010E000E000ED00E09B
S315000008A0A0290000B4450020C8290000DC4500202E
S315000008B08B450020A04500208D450020AC4500203A
S315000008C07C2900005C2A000038460020A840002051
S315000008D00C2A000010460020082A0000302A0000DA
S315000008E02446002020290000C5400020C3400020E7
S315000008F0C4400020C240002023290000F040002010
S3150000090032290000E8400020282900002C29000098
S31500000910302900009C470020964500208A4500208B
S3150000092095450020B94000209B470020C740002085
S31500000930C8400020CA400020FFFEFFFF00000A401A
S31500000940FFFDFFFF02020A40984500209745002060
S31500000950772900009A470020874500209947002004
S31500000960B84000208647002001F05EF808B901F083
S31500000970B7F8774F3B78002B00D1D7E0754A764819
S31500000980137859424B41DBB21370744A5B029B18D1
S31500000990734A936040F20013D381FFF7ADFD2060E8
S315000009A058B17048FFF7B8FD6F48FFF789FD6F48EB
S315000009B000F02CF96848FFF7A3FD00233B70CDE655
S315000009C06B4A6C4912786C4800F066FBE3E60370EC
S315000009D00B70E1E6002306226849674800F05CFBDD
S315000009E037E7664F66483B789C46664640F23B1CB6
S315000009F07B781B02334366464FF6FF7C5BBA9BB29D
S31500000A005E43B6FBFCF35F4E313B3370FB783F79B8
S31500000A103F023B4364275BBA9BB27B43B3FBFCF3C9
S31500000A20037000230B703C21574803705248416005
S31500000A30564900F046FB32782B7820609B1A0A3321
S31500000A405B00191CDBB2BB4200D9391C504E02A810
S31500000A503170504901F0B8FA494B4E491A7803A84B
S31500000A6001F0B2FA2A784C4904A801F0ADFA3278BE
S31500000A704A4905A801F0A8FA002001F009F9052164
S31500000A80002001F037F901224549464801F080F976
S31500000A9014210A2001F02EF90122434902A801F08F
S31500000AA077F90521462001F025F901223C493F4806
S31500000AB001F06EF91421502001F01CF901223A4987
S31500000AC003A801F065F92821002001F013F901229D
S31500000AD03349374801F05CF932210A2001F00AF95E
S31500000AE001222F4905A801F053F92821462001F0DB
S31500000AF001F901222A492F4801F04AF932215020F2
S31500000B0001F0F8F80122264904A801F041F901F0A4
S31500000B1079F99FE60A2111701B4A093911701648A6
S31500000B200622164900F0B8FA2060AAE6224B1B7886
S31500000B30002B00D112E60B48FFF7EEFC0A48FFF740
S31500000B40BFFC0A4800F062F80348FFF7D9FC05E647
S31500000B508541002086450020384600208641002039
S31500000B60A8400020AC450020104600202446002066
S31500000B70B9400020BA400020DC45002099450020FD
S31500000B80C3400020C540002098450020884500202D
S31500000B90C240002037290000202900002329000038
S31500000BA0F040002032290000E840002028290000FB
S31500000BB02C290000302900008441002010B518B906
S31500000BC00122054B1A7010BD0228FCD103490448C6
S31500000BD000F0F4F9F7E7C04690C07E40682A0000AE
S31500000BE0A445002040B1054B02791A701B78032BEF
S31500000BF002D10022024B1A707047C046C640002040
S31500000C008945002010B500F013F910BD10B500F0AD
S31500000C10EBF810BD10B500F0DFF810BD10B5FFF70A
S31500000C207FFC002010BD1FB5036A4BB1C469247850
S31500000C30029169460A71426A00946846039298478F
S31500000C401FBDFFFFF8B5C1614B69040003628B69E4
S31500000C500D004362254B8361EFF31081012787F373
S31500000C601088234B23485A6802405A605B6881F318
S31500000C701088E369A269DE691F48736859781171A3
S31500000C801978E3691D4A1B78D1546B78E978DB0043
S31500000C9089000B43A978A269415C05200B43717852
S31500000CA00B433178B9400B43DBB2D3700322A369FF
S31500000CB09A70A36980329A7000236361E360A36926
S31500000CC060329A70297922002856FFF7DDFA736898
S31500000CD039005888FFF734FA0720A97928562200E8
S31500000CE0FFF7D2FA064B00206360F8BD00340A40D5
S31500000CF0FC6F0440FF7FFFFF4C2B000000350A40CD
S31500000D005452415570B50400C36907200E00150002
S31500000D101856FFF7A9FA731CA36002230720A269DD
S31500000D20013DE56091780B439370E3691856FFF730
S31500000D3093FA3278A36900201A7070BD10B5EFF3EC
S31500000D400383103B0E4A5BB29B009858C2688369C6
S31500000D504AB1826812781A70C368013BC36083681F
S31500000D600133836010BD9C78022221001140144299
S31500000D7003D0997891439970F4E7FFF754FFF1E7B0
S31500000D806C46002010B5EFF303830724103B104A8E
S31500000D905BB29B00985882695178537994710D4AD9
S31500000DA02340D25CC9B212B1FFF73DFF10BD4369C3
S31500000DB00422002BF8D003691970036941690133D5
S31500000DC00139036141610029F0D10122ECE7C046F7
S31500000DD06C460020442B00004289024B00209A8674
S31500000DE07047C046FE260A4010B5064B4289DA8691
S31500000DF0436812201856002801DBFFF735FA002059
S31500000E0010BDC046FE260A4010B5C2694B1E547876
S31500000E10032C04D19279022A01D04B08013B027CB3
S31500000E200249520052189BB2138010BD00260A4098
S31500000E3070B50C000B7C01210E009E40B6B20681F7
S31500000E40446063690500C360A3690361EFF3108022
S31500000E5081F31088174BDA688A43DA60DB6880F31F
S31500000E601088E1690A78CB79D207D20F9B03134326
S31500000E708A78501E8241D20213434A780E495200A4
S31500000E80525A002113430D4A9BB21187227C0C490A
S31500000E9088325200535220006168FFF7B5FF1220D6
S31500000EA06E812056002803DB2A00617CFFF7ECF9EF
S31500000EB0002070BDFC6F0440502B0000FE260A4047
S31500000EC000260A4030B585B0EFF30383103B134A82
S31500000ED05BB29B009A585068C3695978002304395D
S31500000EE01C00022905D8037C0D495B005B5A0234BD
S31500000EF09BB2D16881B1156901A804710195022CD4
S31500000F0008D15268064C127C90325200125B1204D1
S31500000F1001329B188360884705B030BD6C460020BF
S31500000F2000260A40EFF31080012383F31088064B56
S31500000F30196819B9054A1170403111701A680132E1
S31500000F401A6080F3108870476846002040030A4004
S31500000F50EFF31081012383F31088074B1A6812B14F
S31500000F601A68013A1A601A681AB9044B1A70803264
S31500000F701A7081F3108870476846002040030A40C3
S31500000F8070B50400FFF7CEFF0022FF200A4D23882C
S31500000F90934202D8FFF7DCFF70BD6168D300C91821
S31500000FA08E880968330A1B0106409B1989B25B00CB
S31500000FB00132595392B2EAE700020A4010B5034BD8
S31500000FC003600800FFF7DCFF002010BD54524F50AD
S31500000FD0EFF31080012383F31088064B196819B9C3
S31500000FE0054A1170403111701A6801321A6080F397
S31500000FF0108870476846002040030A40EFF31081CE
S31500001000012383F31088074B1A6812B11A68013A54
S315000010101A601A681AB9044B1A7080321A7081F372
S31500001020108870476846002040030A40012307B530
S3150000103021B9431DDA7F03239B1ADBB2026B0092B0
S315000010406A461371C36A6846984707BD01000023C4
S3150000105030B5021D0831D377C361CB7720310B70D1
S31500001060C41DE57F0A4902305DB90A4C0233657832
S315000010702B436370D37FC07F0133D3770870002082
S3150000108030BDE377C37F0120D0770B70F7E7C0460A
S3150000109000300A40FF300A4010B5841DE3778261B4
S315000010A0027A4161012A06D14368811C5B00134321
S315000010B0CB77C31CDA770122431DDA77FFF7C6FF29
S315000010C010BD10B5841DE3778261027A4161012A61
S315000010D005D14368811C5B00CB77C31CDA770022FD
S315000010E0431DDA77FFF7B2FF10BDFFFFF8B50160C9
S315000010F08A68040042600A7B0B000272CA69C262F7
S315000011000A6A0263EFF31086012282F310881D78C3
S315000011102B490A35AA404868904348604A6886F3D6
S3150000112010882268274E556A2748AA78F2706A788E
S315000011303271226829785768EA7892000A43874212
S315000011403BD11020D2B2B270597B18562200FFF75D
S315000011509BF87F2273781340737002232A79134316
S315000011601A4A93709C22737813437370FFF730FF0B
S31500001170FF212E8A6869330A1B010E40144A9B1907
S3150000118080B25B0098522889030A1B010840E9686F
S315000011901B1889B25B009952FFF730FF0020631DD0
S315000011A06061A061E061D877A31DD8770233D87754
S315000011B0E31DD877074BE360F8BD08210A43C0E773
S315000011C0FC6F0440FF300A40A086010000300A4050
S315000011D000020A404349495270B5EFF30383103BBE
S315000011E0324A33495BB29B0098584B78DAB25B07B8
S315000011F003D4030028331B7823B153B2002B01DA42
S3150000120053060DD5012314001C401A4208D10200D2
S315000012100832D377274A846151780B43537070BDE7
S31500001220C46983699C4228D2431DDB7F33B9436975
S315000012301B5D0B70C3690133C361F0E702002832FE
S3150000124015781C4B097845B9012111702C22597863
S315000012509143083A0A435A70E1E742691155C26957
S3150000126081690132C2618A4204D12C2259789143A4
S31500001270043AEFE720225978ECE701210A4206D02A
S3150000128003000833D97FC9B2FFF7D0FEC7E7831D35
S31500001290DA7F084B0AB95A78DCE702225C782243E7
S315000012A05A70C31DD9770133ECE7C0466C4600205F
S315000012B000300A40FF300A40F0B5EFF310840123F6
S315000012C083F310880F4B104D9A682A409A609B68EA
S315000012D084F310880124002500230C4FFC225205BC
S315000012E0224205D0CA5C944666461A1D9200D65321
S315000012F0013324196D411D2BF0D1054B03600020ED
S31500001300F0BDC046FC6F0440FFBFFFFF0010044065
S31500001310434C4500030000201860014B18707047CD
S31500001320001004408022024B00201A707047C0460D
S315000013300010044070B50A00FF24D37815003F2B37
S3150000134005D9D38923401E029B199BB2D381AB7862
S3150000135010323F2BF1D80823044A13700423C356D6
S3150000136003489B0019501823137070BD00540040A9
S31500001370004000201F22430910401E3A82400249C5
S31500001380C8339B005A5070470060004070B5042572
S31500001390455704002800FFF7EDFF0020024BAD0083
S315000013A0E850206070BDC04600400020F7B51B4BDA
S315000013B00D0019780400D9B901261E70EFF31083C9
S315000013C0019386F3108840F2400C40F602436746CC
S315000013D0134AD05AB843D052D35A019B83F310888C
S315000013E0104FA822380000F00FFE0F4B5F601E73EF
S315000013F06B680B201B785BB2002B0DDB094A99004A
S315000014008A58033842B92371296811B12000FFF7C1
S3150000141091FF0020054B2360FEBDC04640460020DC
S3150000142000E00140004000200054004000435444C6
S3150000143004221F218256002053090A401E3991407A
S315000014400A00C43301499B005A50704700600040AF
S3150000145070B50400042020560D00FFF78BFF042210
S3150000146048F20003A2560B491343CA899342FCD0A3
S3150000147029002000FFF75EFF04221F21A25600204C
S3150000148053090A401E3991400A00C43302499B00A1
S315000014905A5070BD005400400060004000228B5E30
S315000014A09A1C09D0DA1C0AD00022DBB205490020BA
S315000014B04B70054B1A75704703220023F6E702228C
S315000014C0FBE7C04600180A40FF180A4010B503683B
S315000014D0104C5B691A79012A03D1D9787F32FF292A
S315000014E012D0012122780C480A4322709A780523EB
S315000014F09B1A0A4ADBB21268DA40B0FBF2F0884067
S315000015004018FEF71DFE8122237800201343237026
S3150000151010BDC04600180A4040420F001847002080
S3150000152010B5036806201856002801DDFEF79CFE5C
S315000015307E210A4A13780B401370EFF310810123C2
S3150000154083F310888022064B5202D8680243DA6081
S31500001550DB6881F31088002010BDC04600180A40E1
S31500001560FC6F0440F0B50160CB6885B043600B6941
S315000015700E0083604D692A496A782B7852009B01D8
S315000015801343AA780700D2001343DBB201932C79E8
S315000015906B79A4015B011C43224B1A68002391421C
S315000015A05B41DB001C43EB78E4B2FF2B02D0234304
S315000015B080241C43AB79EA79DB0052011343F278AD
S315000015C013435BB20293EFF310830120039380F37E
S315000015D01088154AD3681900144B1940D160D36896
S315000015E0039B83F310880100FEF7AAFD697A104A6F
S315000015F0104B9174A97AD174019919703F219C708E
S3150000160002982B7A014006209B010B43DBB25374F0
S3150000161030563A00717AFEF737FE002005B0F0BD6D
S3150000162000093D0018470020FC6F0440FFFFFEFF45
S31500001630FF180A4000180A4010B588B0EFF303837C
S315000016400620103B0C4A5BB29B009C582368185638
S31500001650FEF7CCFD636863B100236A466946937062
S315000016602268684612880B81A3680A800193636822
S31500001670984708B010BDC0466C46002040F20A22CA
S3150000168030B50F4B995C8909814218D040F20B2482
S3150000169001211D5D29431955022805D0995C890948
S315000016A0022901D08021995440F20A2240F20B21EE
S315000016B08001C0B2985401205A5C82435A5430BD0E
S315000016C000C07E40F8B540F623050127214C665D33
S315000016D0BE436655665DB607F70FBC46002EF9DBBE
S315000016E00127B84224D840F62105665DBE436655FB
S315000016F0665DB607FCD4012640F6200588B9605D14
S31500001700B0436055605D8007FCD440F61800215454
S3150000171040F61901625440F61A02A354FEF7E4FC9F
S31500001720F8BD615D0E436655615D8907FCD5EFE73F
S3150000173040F6220102280AD167540121605D014367
S3150000174040F623006155215C8907FCD5E0E7604639
S315000017506054F2E700E001407047FFFF40F6FE03E9
S3150000176070B5274A274C0025E252274B274ADD60F1
S315000017701A60274A5A6048F200029A601A61FEF718
S31500001780B3FC40F600031A2240F62401E254635CDF
S315000017908BB1204B2048DA680240DA60DA687F268F
S315000017A01E48C27A3240C2728022D86812040243AE
S315000017B0DA60DB68655440F60C03E25CDAB10022BD
S315000017C0E2540320FFF75AFF002240F60803E254D2
S315000017D040F61202A35CDB07FCD5002040F60903A5
S315000017E00200E05401000300FFF76CFF40F6FE0321
S315000017F00B4AE25270BD40F2E830FFF7ADFFE0E77A
S3150000180003A5FFFF00E00140504100200048E80129
S3150000181000093D00FC6F0440FFFF7FFF002C0A40DB
S3150000182000A5FFFF7047FFFF10B50B4A03001168C4
S3150000183009B90A4911600321106803338B4308492B
S31500001840C3188B4206D900F0E7FB0C230360012086
S31500001850404210BD1360FCE714470020F04D002005
S31500001860F04D002070B50025184B194A00209A60EB
S31500001870FFF7A4F9FFF772FF0120FFF79FF915485C
S31500001880154A0021121A00F0BFFB1448144A1549E4
S31500001890121A00F0C9FB144C144BE41AA410A5420A
S315000018A00CDBFEF721FCFFF7BDFF0220FFF786F9F0
S315000018B0FEF7F2FC002000F01BF870BD0B4AAB00EF
S315000018C09B181B6898470135E9E7C04600ED00E024
S315000018D00000000068410020EC4D0020A8400020D8
S315000018E050410020384000004C4100204841002073
S315000018F07047F7B50025AC462F000193EEB28E4235
S315000019001BD2012F19D047573C00303CE4B2092CBA
S3150000191001D90120FEBD63460A245C430136303CF2
S31500001920E419F6B2A3B284579C460127944202D02A
S3150000193066427441E7B20135E0E76346019A00204A
S315000019401380E7E7054B1878054B1B78984202D9B8
S31500001950C01A80B270473230FAE7C04621470020ED
S3150000196020470020F0B585B00D001C000E00029047
S3150000197003920BB98E1CB6B2FFF7E4FF0123864231
S315000019801FD2254E33780093244B1A7801920022F9
S315000019909446AA4218D37CB91878421CD2B2312A8E
S315000019A000D814000D251E4A15540A20105501347E
S315000019B0E4B2312C1CD81C70019B009A9A421AD0B2
S315000019C00023180005B0F0BD0298875617B9039892
S315000019D0012807D1187812490F540130C0B23128B6
S315000019E003D818700132D2B2D3E761461970F9E70D
S315000019F000221A70E0E70A4B009A0A48D118012221
S31500001A00FFF780F933780133DBB2312B01D833701D
S31500001A10D6E70023FBE7C0462147002020470020E9
S31500001A2022470020B4450020044B1878044B1B784D
S31500001A30C01A43425841C0B27047C0461E470020F4
S31500001A401F47002010B502000079082809D8B0B158
S31500001A500138072813D800F07FFA0B201213121250
S31500001A60120B402804D008D8EF231038184206D1AC
S31500001A70144A13880133138001E08028F8D010BD82
S31500001A80114990680B78114AD0540133DBB2312BDF
S31500001A9001D80B70F3E70023FBE70D4C0D4B2178C3
S31500001AA01B788B42EBD00C4B0122C9180B48FFF771
S31500001AB029F923780133DBB2312B01D82370DEE715
S31500001AC00023FBE71C4700201F4700205447002047
S31500001AD0214700202047002022470020B44500204F
S31500001AE0F0B51248124A03781249D25C242A0DD165
S31500001AF001240C7010490A70104A14700133DBB2CD
S31500001B00312B00D9002303700020F0BD0C78012C86
S31500001B10F4D10A4E35786F1C3770074E72550A2A73
S31500001B20ECD1074A147000220A70E7E71E4700202E
S31500001B305447002088470020894700208747002017
S31500001B408647002030B51F4A8FB05378662B2CD0BD
S31500001B500AD8462B29D0532B08D000240022200077
S31500001B60194B1A700FB030BD732BF6D16B469D1C06
S31500001B702B000A2205211548FFF7BBFE2A88040020
S31500001B80131F4C2BEAD8124B12491A801A8801A847
S31500001B9092B200F019FA01A800F04FFA012381B2BF
S31500001BA01A0001A8FFF7DEFED8E793780321313B40
S31500001BB05A425341084A0948137001231A00FFF795
S31500001BC0D1FECAE789470020864700208B470020C0
S31500001BD0CA4000203E290000C74000203A290000E4
S31500001BE0164A1388013B9BB2138023B90121144B7B
S31500001BF019700A231380134A1388013B9BB2138082
S31500001C0023B90121104B1970192313800F4A138829
S31500001C10013B9BB2138023B901210D4B197064233C
S31500001C2013800C4A1388013B9BB213802BB9012108
S31500001C30094B197040F2E83313807047E6400020E4
S31500001C409C470020E44000209B470020E240002003
S31500001C509A470020E04000209947002013B56B46C4
S31500001C60187159710123074C02222370064800237C
S31500001C7001A9FFF726FA054B18602378012BFCD043
S31500001C8013BDC04689450020DC450020A045002044
S31500001C90431E984110B5414240F200420248C9B283
S31500001CA000F0B2F910BDC046A448002030B57F2828
S31500001CB010D83F290ED80D4B0D4C1D79CB0855B1C8
S31500001CC05AB9DB010722181801230A409340225C07
S31500001CD01343235430BD012AF3D0DB011818072320
S31500001CE0012219408A40235C9343F2E79E48002074
S31500001CF0A4480020014B1880598070479E48002058
S31500001D00F0B585B00292214A0C00138805000093B5
S31500001D100B7800995B187F2B07DC5388002601930C
S31500001D206378019A9B183F2B0EDD002514E02A00EC
S31500001D300027203A534362689B195B009B5A039322
S31500001D4023789F420BD3013663789E42EFD3009AE5
S31500001D502378D3180D4A1380280005B0F0BD009BE8
S31500001D6048F20002D819019B80B29919039B89B2E7
S31500001D70BB40134204D0029AFFF798FF0137DFE712
S31500001D80029B5A425A41D2B2F6E7C0469E4800200C
S31500001D9070B504000D0016000020205600B970BD75
S31500001DA032002900FFF7ACFF0300002020568342D3
S31500001DB0F5D10134F0E7FFFF10001A000D4B10B506
S31500001DC01970002191420ED301230B4CD2182370B7
S31500001DD0084900230948FFF774F9094B186023786E
S31500001DE0012BFCD010BD034B445CCB1801315C7059
S31500001DF0C9B2E7E79D47002089450020DC45002061
S31500001E00A045002070B5B0240C4D21000020FFF73E
S31500001E1025FF00210800FFF721FF013410210020D3
S31500001E20FFF71CFFE4B22A00802340213C20FFF785
S31500001E30C3FF8035B82CE8D170BDC046A448002049
S31500001E4010B50020FFF724FFFFF7DCFF10BDFFFFF2
S31500001E5010B5AE210020FFF701FF20210020FFF77B
S31500001E60FDFE10210020FFF7F9FEB0210020FFF74C
S31500001E70F5FEC8210020FFF7F1FE00210800FFF75C
S31500001E80EDFE10210020FFF7E9FE40210020FFF7BC
S31500001E90E5FE81210020FFF7E1FEFF210020FFF78C
S31500001EA0DDFEA1210020FFF7D9FEA6210020FFF7C5
S31500001EB0D5FEA8210020FFF7D1FE3F210020FFF725
S31500001EC0CDFEA4210020FFF7C9FED3210020FFF795
S31500001ED0C5FE00210800FFF7C1FED5210020FFF74F
S31500001EE0BDFEF0210020FFF7B9FED9210020FFF743
S31500001EF0B5FE22210020FFF7B1FEDA210020FFF710
S31500001F00ADFE12210020FFF7A9FEDB210020FFF71E
S31500001F10A5FE20210020FFF7A1FE8D210020FFF75E
S31500001F209DFE14210020FFF799FEAF210020FFF748
S31500001F3095FE2E210020FFF791FE0020FFF7A8FE58
S31500001F40FFF760FF00220120024B1A805A80587169
S31500001F5010BDC0469E48002002B47146490849009B
S31500001F60095C49008E4402BC7047C046F0B54FF686
S31500001F70FF750400CE462C40474615400E0029004A
S31500001F80994680B5130C0700000C6143454358433E
S31500001F9063430C0C5B19E4188C46A54203D98023D5
S31500001FA05B0298464044230C61461B184FF6FF70AF
S31500001FB00840494656437943240489192018C9180C
S31500001FC0C0BCB946B046F0BD0EB400B50B499CB0D6
S31500001FD01DAB02900690079104910948094904CB6C
S31500001FE00591006802A9019300F08AF90022029B7C
S31500001FF01A701CB008BC03B01847C046FFFFFF7F2D
S31500002000F84000200802FFFF03008218934200D127
S31500002010704719700133F9E7014B18687047C046DD
S31500002020F840002070477047002310B59A4200D14F
S3150000203010BDCC5CC4540133F8E70023C25C013305
S31500002040002AFBD1581E704770B505000C0079B107
S31500002050043C2368002B00DAE418280000F0DEF8C0
S315000020601C4A13682BB963601460280000F0DEF880
S3150000207070BDA34208D9206821188B42F3D1196894
S315000020805B6809182160EEE71A005B680BB1A34292
S31500002090FAD911685018A0420BD1206809185018B7
S315000020A011608342E1D118685B6841181160536082
S315000020B0DBE7A04202D90C232B60D6E72068211863
S315000020C08B4203D119685B6809182160636054600C
S315000020D0CBE7C046E84D002070B50F4E0D003168C5
S315000020E0040011B900F08EFB30602900200000F0DA
S315000020F089FB431C03D101256D42280070BD0323D3
S31500002100C51C9D43A842F8D0291A200000F07AFB8E
S315000021100130F2D1EFE7C046E44D0020F7B50322C7
S31500002120CB1C9343083305001F000C2B34D20C271D
S31500002130B94233D8384E280000F070F833681C00D6
S31500002140002C2FD139002800FFF7C6FF0400431CDE
S315000021505FD134680094009B002B4AD1002C52D0EA
S3150000216023682800E3180099019300F04BFB019BBC
S31500002170834248D123682800FF1A3900FFF7ACFFD5
S31500002180013040D02368DB19236033685A68002A7F
S3150000219033D1009B336019E0002BC9DA0C232B6086
S315000021A00020FEBD2168C91B20D40B290AD9E219DB
S315000021B02760A34204D1326063681160536005E072
S315000021C05A60F9E76268A3420ED13260280000F037
S315000021D02DF8200007220B30231D9043C21A984287
S315000021E0DFD01B1AA350DCE75A60EFE723006468D0
S315000021F0A6E7009C63680093ADE71A005B68A342FC
S31500002200FBD10023DAE70C2328002B6000F00EF840
S31500002210C6E70760DAE7C046E84D002010B5024879
S31500002220FFF700FF10BDC046E04D002010B5024884
S31500002230FFF7F9FE10BDC046E04D0020F0B58E68F0
S3150000224085B01F000C000B6802900392BE4231D885
S315000022500C21625E40F280410A4229D003202169A6
S315000022605B1A0193636943430198DD0FED187B1CEC
S315000022701B186D10AB4200D91D00520529D5290047
S315000022800298FFF74BFF060000282DD0019A21691E
S31500002290FFF7CAFEA289194B1A4080231343A38174
S315000022A0019B2661F61826603E006561ED1AA56061
S315000022B0BE4200D93E0032000399206800F090FA31
S315000022C00020A3689B1BA36023689B19236005B0AD
S315000022D0F0BD2A00029800F0B0FA06000028DFD10F
S315000022E021690298FFF7B0FE0C230120029A4042B2
S315000022F01360A28934331343A381E8E77FFBFFFF12
S31500002300F0B5A1B0039004921D008B890F001B0647
S315000023100FD50B696BB94021FFF700FF38603861B4
S3150000232028B90C23039A136001204042CFE04023D2
S315000023307B61002308AC6361203363761033A37698
S315000023400795049E33780BB1252B46D1049BF51ACD
S315000023509E420BD02B003900049A0398FFF76EFFBC
S31500002360013000D1AEE063695B1963613378002BFD
S3150000237000D1A7E0012200235242626004A9543230
S31500002380521801362360E360A3601370A36505222B
S315000023903178544800F046FA751C00BB2268D30613
S315000023A004D5532304A95B1820211970130704D5FB
S315000023B0532304A95B182B21197033782A2B17D0C5
S315000023C03500002140F20A0C0126E3682A78681CD1
S315000023D0303A092A4ED989B917E00136B2E7414B9E
S315000023E02268C01A0123834013432E002360CEE7E0
S315000023F0079B191D1B680791002B01DB0B9304E05B
S315000024005B42E3600223134323602B782E2B0CD10F
S315000024106B782A2B34D1079B02351A1D1B6807924D
S31500002420002B01DA01235B4209932F4E0322300071
S31500002430297800F0F7F930B14023801B83402268E9
S3150000244001351343236029786B1C06222748049321
S31500002450217600F0E7F900283BD0254B33BB072255
S31500002460079B07339343083307936369059A9B18C1
S31500002470636166E761464B43050031009B18A5E79B
S31500002480002340F20A0C1A00012601356360297800
S31500002490681C3039092903D9002BC6D00992C4E734
S315000024A063465A43050033005218F0E707AB009322
S315000024B03A0021000F4B039800E000BF0590059BF2
S315000024C00133D2D1BB890D985B0600D52CE721B02C
S315000024D0F0BD07AB00933A002100064B039800F0CD
S315000024E079F8EBE7442900004A2900004E2900004C
S315000024F0000000003D220000F7B5160001938A682F
S315000025000B690C000090934200DA1300220033603E
S31500002510433212780AB10133336023689B0602D531
S315000025203368023333602268062315001D401A42C1
S3150000253027D0230043331B785A1E93412268920604
S3150000254030D4220001990098089D4332A8470130F3
S3150000255025D00622236800251340042B05D13368B5
S31500002560E568ED1AEB43DB171D40A3682269934229
S3150000257001DD9B1AED180026B54220D1002010E09F
S315000025800135E36832689B1AAB42D2DD2200012393
S3150000259001990098089F1932B8470130F0D10120FF
S315000025A04042FEBD3020E1184331087021005A1C1C
S315000025B045310978A218433202331170C1E722006F
S315000025C0012301990098089F1A32B8470130E6D0D6
S315000025D00136D1E7F0B50E0089B004920390059359
S315000025E00C00097E0E9A4336782907D8622909D845
S315000025F0002900D1B7E0582900D1A0E025004235D6
S31500002600297022E0080063381528F7D800F04AF947
S3150000261016001F00F6FFF6FFF6FFF6FF1F00F6FF97
S31500002620F6FFF6FFF6FF9E0034004300F6FFF6FFC6
S31500002630AF00F6FF3400F6FFF6FF470025001368EB
S315000026404235191D1B6811602B7001239CE013682D
S315000026502068191D050609D51B681160002B02DAD2
S315000026602D225B4232700A225B4832E01B68116001
S315000026704006F3D51BB2F1E71068256808C82F0697
S3150000268002D46D0600D59BB21060082252486F290D
S315000026901BD00A2219E0202321680B4323607821EE
S315000026A04E482300453319701568216808CD0F067A
S315000026B002D44F0600D59BB21560CA0702D5202268
S315000026C00A432260002B3CD0102221000025433112
S315000026D00D706168A160002908DB40F2040C6746B2
S315000026E025681943BD432560350061B13500B3FB4C
S315000026F0F2FC61465143591A415C013D29701900AB
S3150000270063468A42F3D9082A09D12368DB0706D52E
S31500002710626823699A4202DC3023013D2B70761BE6
S315000027202661059B210000930398049B07AAFFF7E7
S31500002730E3FE01302CD10120404209B0F0BD26480D
S31500002740AFE7202122688A432260BDE71368256827
S31500002750181D616910601B682F0601D5196002E01B
S315000027606D06FBD51980002335002361D9E7136870
S31500002770191D11601D6800212800626800F052F8DA
S3150000278008B1401B60606368236100233370C8E7AB
S315000027902A00236904990398059DA8470130CAD0E9
S315000027A023689B0715D4079BE0689842C5DA180092
S315000027B0C3E72200012304990398059E1932B04706
S315000027C00130B8D00135E368079A9B1AAB42F0DCBA
S315000027D0E9E70025F7E7C04655290000662900000D
S315000027E010B5884202D98B18984208D300239A4222
S315000027F007D0CC5CC4540133F9E78B5C8354013AAF
S31500002800FBD210BD002370B5054D040008002B60F7
S31500002810FFF70AF8431C02D12B6803B1236070BD91
S31500002820DC4D0020C9B28218904201D100207047C9
S3150000283003788B42FBD00130F6E7F7B506000C00B3
S31500002840150029B91100FFF769FC04002000FEBD40
S315000028501AB9FFF7F9FB2C00F8E700F01BF80700A0
S31500002860854202D84308AB42F0D329003000FFF777
S3150000287055FC019008B9019CE8E72A00BD4200D941
S315000028803A0021000198FFF7CFFB21003000FFF747
S31500002890DBFBF0E70B1F1B68181F002B01DA0B5838
S315000028A0C018704703B47146490840004900095EE4
S315000028B049008E4403BC70474275696C7420776981
S315000028C074682052656E6573617320416476616E2B
S315000028D063656420466C657869626C6520536F6633
S315000028E07477617265205061636B616765207665F8
S315000028F07273696F6E20352E362E3000352E362EC9
S315000029003000000000000605F8B5C046F8BC08BC5B
S315000029109E467047F8B5C046F8BC08BC9E46704750
S31500002920257500257525250048756D0046616E00E4
S31500002930442054656D700025640024660A002473E3
S3150000294025640A00232D302B2000686C4C00656638
S3150000295067454647003031323334353637383941EA
S315000029604243444546003031323334353637383900
S31500002970616263646566002416FFFFFF00000000C5
S315000029800000000000000000000000000000000041
S315000029900000000C00000000000000000000000025
S315000029A000030000022902280000FFDF00000000EB
S315000029B000000000451A000000000000C0290000C9
S315000029C001000000CC40002000000000A0860100AD
S315000029D000000000010200001A00000000000000D4
S315000029E000000000E50B000000000000F0290000D8
S315000029F001554C00010000000D09000044010000D3
S31500002A000E090000440100000000FFFF0000000264
S31500002A1000001FDF0002FF00D104000000000000DC
S31500002A20242A0000010005040101000000FF00FF48
S31500002A30000000000000010000000000000000008F
S31500002A40000213000000000000000000502A0000F1
S31500002A5000000002060001000001FFDFD040002058
S31500002A60642A00001FFFFFFF1A000000742A0000FE
S31500002A700000000004000000080000000400000040
S31500002A8009000000000000000A00000000800000AD
S31500002A900E000000004000000F00000010000000C3
S31500002AA000010000100000000101000010000000FD
S31500002AB002010000100000000301000000010000F8
S31500002AC008010000100000000901000010000000CD
S31500002AD00A010000100000000C0100000040000088
S31500002AE000020000100000000102000000000000CB
S31500002AF006020000000200000702000004020000B7
S31500002B0008020000000400000C020000040400009B
S31500002B100D020000000000000E0200000000000090
S31500002B200F02000000010000000300000401000085
S31500002B3007040000400000000D09000040000000EE
S31500002B400E090000002010300828183800206040C8
S31500002B50000000000610001004010C020C0208011F
S31500002B6002000000682B00000800090000000000B9
S31500002B70000000000000000000000000000000004F
S31500002B80000000000000000000000000000000003F
S31500002B900000000C000C000C000C000C000C000CDB
S31500002BA0000C000C000C000C0000000C000C0000D7
S31500002BB0000000000000001B001B001B001B001B88
S31500002BC000000000000000000000000000000000FF
S31500002BD00000000000000000000080198019801924
S31500002BE08019C07FC07F80190033C07FC07F00334B
S31500002BF00033003300330000000000000000001E18
S31500002C00003F807580650074003C001E000780054B
S31500002C10806580658075003F001E0004000400008A
S31500002C200000007000D840D8C0D880D900730006D4
S31500002C30000C801BC036C066C046C006800300007C
S31500002C40000000000000001E003F00330033003388
S31500002C50001E000CC03CC066806380618063C03E7D
S31500002C60801C0000000000000000000C000C000C9E
S31500002C70000C000C00000000000000000000000036
S31500002C8000000000000000000000000080000001BD
S31500002C900003000600060004000C000C000C000CEB
S31500002CA0000C000C00040006000600030001800072
S31500002CB0002000100018000C000C0004000600069E
S31500002CC000060006000600060004000C000C0018B2
S31500002CD0001000200000000C002D003F001E0033F5
S31500002CE000000000000000000000000000000000DE
S31500002CF00000000000000000000000000000000CC2
S31500002D00000C000C000CC0FFC0FF000C000C000CF7
S31500002D10000C0000000000000000000000000000A1
S31500002D20000000000000000000000000000000009D
S31500002D30000000000000000C000C00040004000865
S31500002D40000000000000000000000000000000007D
S31500002D500000001E001E0000000000000000000031
S31500002D60000000000000000000000000000000005D
S31500002D700000000000000000000000000000000C41
S31500002D80000C000000000000000000030003000328
S31500002D900006000600060006000C000C000C000CE5
S31500002DA00018001800180000000000000000001EB7
S31500002DB0003F0033806180618061806D806D80613D
S31500002DC0806180610033003F001E000000000000AB
S31500002DD000000006000E001E003600260006000653
S31500002DE000060006000600060006000600060000B3
S31500002DF0000000000000001E003F807380618061BB
S31500002E00800100030006000C001800300060807F7F
S31500002E10807F0000000000000000001C003E0063F0
S31500002E2000630003000E000E000380018001806134
S31500002E308073003F001E0000000000000000000636
S31500002E40000E000E001E001E00160036003600663C
S31500002E50807F807F0006000600060000000000005C
S31500002E600000007F007F006000600060006E007F51
S31500002E7080638001800180618073003F001E000036
S31500002E80000000000000001E003F803380610060EB
S31500002E90006E007F80738061806180618033003FB7
S31500002EA0001E0000000000000000807F807F80017F
S31500002EB00003000300060006000C000C000C0008CE
S31500002EC00018001800180000000000000000001E96
S31500002ED0003F8063806180610021001E003F8061A9
S31500002EE0806180618061003F001E000000000000DC
S31500002EF00000001E003F0073806180618061807366
S31500002F00803F801D800180610073003F001E00002D
S31500002F100000000000000000000000000000000C9F
S31500002F20000C000000000000000000000000000C83
S31500002F30000C00000000000000000000000000007F
S31500002F4000000000000C000C000000000000000063
S31500002F500000000C000C0004000400080000000043
S31500002F600000000080008003000E0038006000387A
S31500002F70000E80038000000000000000000000003A
S31500002F8000000000000000000000807F807F00003D
S31500002F900000807F807F000000000000000000002D
S31500002FA0000000000000000000000000004000706B
S31500002FB0001C000780010007001C00700040000094
S31500002FC000000000000000000000001F803FC071EC
S31500002FD0C060C000C00180030007000E000C000C9A
S31500002FE00000000C000C0000000000000000001EA5
S31500002FF0003F803180718063806F806D806D806F4F
S31500003000806700600032003E001C000000000000E7
S315000030100000000E000E001B001B001B001B803171
S315000030208031803F803F8031C060C060C06000005A
S31500003030000000000000007C007E00630063006367
S315000030400063007E007E0063806180618063007F94
S31500003050007E0000000000000000001E003F8031DE
S315000030608061006000600060006000600060806158
S315000030708031003F001E0000000000000000007CC0
S31500003080007F006380638061806180618061806110
S31500003090806100630063007E007C00000000000089
S315000030A00000807F807F0060006000600060007F1D
S315000030B0007F0060006000600060807F807F00000D
S315000030C0000000000000807F807F006000600060DC
S315000030D00060007F007F00600060006000600060AC
S315000030E000600000000000000000001E003F80316C
S315000030F08061006000600060806380638061806141
S315000031008031803F001E000000000000000080614A
S3150000311080618061806180618061807F807F806165
S315000031208061806180618061806100000000000034
S315000031300000003F003F000C000C000C000C000CCF
S31500003140000C000C000C000C000C003F003F0000BF
S3150000315000000000000080018001800180018001E4
S315000031608001800180018001806180618073003F61
S31500003170001E0000000000000000C06080610063C7
S3150000318000660066006C0078007C006600660063DE
S3150000319080618061C06000000000000000000060E7
S315000031A00060006000600060006000600060006019
S315000031B0006000600060807F807F000000000000EB
S315000031C00000C071C071C07BC07AC06AC06AC06EA0
S315000031D0C064C060C060C060C060C060C060000005
S315000031E0000000000000807180718079807980790C
S315000031F0806D806D806D8065806780678067806385
S3150000320080630000000000000000001E003F003345
S3150000321080618061806180618061806180618061A0
S315000032200033003F001E0000000000000000007E8A
S31500003230007F80638061806180618063007F007EA3
S315000032400060006000600060006000000000000098
S315000032500000001E003F0033806180618061806154
S3150000326080618061806580670033803F401E00007A
S31500003270000000000000007E007F806380618061A6
S315000032808063007F007E006600630063806180616A
S31500003290C0600000000000000000000E001F80312A
S315000032A0803100300038001E000780038061806195
S315000032B08031003F001E0000000000000000C0FF3B
S315000032C0C0FF000C000C000C000C000C000C000CE5
S315000032D0000C000C000C000C000C000000000000AC
S315000032E000008061806180618061806180618061B1
S315000032F080618061806180618073003F001E0000F4
S31500003300000000000000C060C060C06080318031F5
S315000033108031001B001B001B001B000E000E000E60
S3150000332000040000000000000000C0C0C0C0C0C013
S31500003330C0C0C0C0C0CC804C804C805E80528052E1
S315000033408073806180610000000000000000C0C042
S31500003350806080610033003B001E000C000C001EE4
S31500003360001F003B80718061C0C0000000000000AB
S315000033700000C0C08061806100330033001E001E63
S31500003380000C000C000C000C000C000C000C0000E3
S31500003390000000000000803F803F80010003000322
S315000033A00006000C000C0018001800300060807F3A
S315000033B0807F000000000000000F000F000C000CD2
S315000033C0000C000C000C000C000C000C000C000C97
S315000033D0000C000C000C000C000F000F0000001881
S315000033E000180018000C000C000C000C000600066B
S315000033F000060006000300030003000000000000B2
S31500003400001E001E00060006000600060006000656
S315000034100006000600060006000600060006000676
S31500003420001E001E0000000C000C001E00120033DF
S315000034300033806180610000000000000000000091
S315000034400000000000000000000000000000000076
S315000034500000000000000000000000000000000066
S315000034600000000000000000E0FF0000000000383F
S315000034700018000C00000000000000000000000022
S315000034800000000000000000000000000000000036
S3150000349000000000000000000000001F803F806167
S315000034A08001801F803F80618063807FC03800007C
S315000034B00000000000000060006000600060006E18
S315000034C0007F807380618061806180618073007F8E
S315000034D0006E000000000000000000000000000078
S315000034E00000001E003F8073806100600060806104
S315000034F08073003F001E00000000000000008001F5
S31500003500800180018001801D803F80738061806121
S31500003510806180618073803F801D00000000000094
S3150000352000000000000000000000001E003F0073C5
S315000035308061807F807F00608071003F001E0000F8
S31500003540000000000000C007C00F000C000C807FC8
S31500003550807F000C000C000C000C000C000C000C12
S31500003560000C000000000000000000000000000049
S31500003570801D803F8073806180618061806180737F
S31500003580803F801D80018063007F003E0000006058
S31500003590006000600060006F807F807180618061E4
S315000035A080618061806180618061000000000000B0
S315000035B000000006000600000000003E003E000677
S315000035C000060006000600060006000600060000CB
S315000035D0000000000006000600000000003E003E5D
S315000035E000060006000600060006000600060006A5
S315000035F000060046007E003C00000060006000609F
S315000036000060806100630066006C007C00760063E9
S3150000361000638061C0600000000000000000003E02
S31500003620003E00060006000600060006000600062C
S315000036300006000600060006000600000000000066
S315000036400000000000000000000080DDC0FFC0CECA
S31500003650C0CCC0CCC0CCC0CCC0CCC0CCC0CC000090
S315000036600000000000000000000000000000006FE5
S31500003670807F80718061806180618061806180610E
S315000036808061000000000000000000000000000053
S315000036900000001E003F8073806180618061806150
S315000036A08073003F001E00000000000000000000C4
S315000036B000000000006E007F807380618061806181
S315000036C080618073007F006E0060006000600060B3
S315000036D00000000000000000801D803F80738061B4
S315000036E08061806180618073803F801D80018001E0
S315000036F0800180010000000000000000000000675B
S31500003700803F00390030003000300030003000309B
S315000037100030000000000000000000000000000073
S315000037200000001E803F80610060007F803F8001B6
S315000037308061007F001E0000000000000000000005
S31500003740000800180018007F007F001800180018F5
S31500003750001800180018801F800F000000000000ED
S3150000376000000000000000000000806180618061B0
S3150000377080618061806180618063807F803D000020
S315000037800000000000000000000000000000C06013
S31500003790803180318031001B001B001B000E000EA3
S315000037A0000600000000000000000000000000000D
S315000037B0000080DD80DD80DD005500550055007776
S315000037C00077002200220000000000000000000038
S315000037D0000000000000806100330033001E000C72
S315000037E0000C001E00330033806100000000000062
S315000037F0000000000000000080618061803100331D
S315000038000033001B001B001B000E000E000E001CE8
S31500003810007C007000000000000000000000C07F77
S31500003820C07F800100030006000C00180030C07F36
S31500003830C07F00000000000080038007000600062D
S31500003840000600060006000E001C001C000E000606
S315000038500006000600060006800780030006000634
S315000038600006000600060006000600060006000622
S315000038700006000600060006000600060006000612
S315000038800038003C000C000C000C000C000C000E74
S3150000389000070007000E000C000C000C000C000CCA
S315000038A0003C00380000000000000000000000009E
S315000038B000008038807F0047000000000000000004
S315000038C000000000000000000000000000000000F2
S315000038D000000000000000000000000000100010C2
S315000038E00010001000100010000000100000000082
S315000038F0002800280028000000000000000000004A
S315000039000000000000240024007C00240048007C05
S3150000391000480048000000000038005400500038FD
S315000039200014005400540038001000000020005419
S315000039300058003000280054001400080000000061
S315000039400010002800280010003400480048003409
S315000039500000000000100010001000000000000031
S3150000396000000000000000000008001000200020F9
S315000039700020002000200020001000080020001079
S3150000398000080008000800080008000800100020D1
S3150000399000100038001000280000000000000000A1
S315000039A0000000000000000000100010007C001065
S315000039B000100000000000000000000000000000F1
S315000039C000000000000000100010001000000000C1
S315000039D000000000000000380000000000000000A9
S315000039E000000000000000000000000000000010C1
S315000039F00000000000080008001000100010001071
S31500003A00002000200000000000380044004400545C
S31500003A10004400440044003800000000001000305C
S31500003A2000500010001000100010001000000000F0
S31500003A300038004400440004000800100020007C08
S31500003A4000000000003800440004001800040004D0
S31500003A500044003800000000000800180028002874
S31500003A600048007C0008000800000000007C0040C0
S31500003A700040007800040004004400380000000004
S31500003A8000380044004000780044004400440038F8
S31500003A9000000000007C0004000800100010002058
S31500003AA000200020000000000038004400440038D8
S31500003AB00044004400440038000000000038004480
S31500003AC000440044003C00040044003800000000AC
S31500003AD000000000001000000000000000000010C0
S31500003AE000000000000000000000001000000000C0
S31500003AF0000000100010001000000000000C003054
S31500003B0000400030000C0000000000000000000033
S31500003B100000007C0000007C0000000000000000A7
S31500003B20000000000060001800040018006000009B
S31500003B3000000000003800440004000800100010D7
S31500003B40000000100000000000380044004C005443
S31500003B50005C004000400038000000000010002813
S31500003B60002800280028007C0044004400000000D3
S31500003B700078004400440078004400440044007883
S31500003B8000000000003800440040004000400040B3
S31500003B900044003800000000007000480044004463
S31500003BA0004400440048007000000000007C004013
S31500003BB00040007C004000400040007C0000000007
S31500003BC0007C00400040007800400040004000407B
S31500003BD0000000000038004400400040005C004443
S31500003BE00044003800000000004400440044007C0B
S31500003BF00044004400440044000000000038001067
S31500003C000010001000100010001000380000000026
S31500003C10000400040004000400040004004400380A
S31500003C2000000000004400480050006000500048BA
S31500003C3000480044000000000040004000400040F2
S31500003C40004000400040007C000000000044006C82
S31500003C50006C00540044004400440044000000008E
S31500003C6000440064006400540054004C004C0044BE
S31500003C7000000000003800440044004400440044B2
S31500003C80004400380000000000780044004400446E
S31500003C90007800400040004000000000003800446A
S31500003CA0004400440044004400540038000400006E
S31500003CB0007800440044004400780048004800446E
S31500003CC000000000003800440040003000080004F6
S31500003CD00044003800000000007C001000100010B6
S31500003CE00010001000100010000000000044004406
S31500003CF00044004400440044004400380000000032
S31500003D000044004400440028002800280010001049
S31500003D100000000000440044005400540054006CAD
S31500003D200028002800000000004400280028001099
S31500003D300010002800280044000000000044004451
S31500003D4000280028001000100010001000000000DD
S31500003D50007C000400080010001000200040007CD9
S31500003D6000000000001800100010001000100010E5
S31500003D700010001000100018002000200010001095
S31500003D8000100010000800080000000000300010BD
S31500003D90001000100010001000100010001000307D
S31500003DA00010002800280044000000000000000069
S31500003DB000000000000000000000000000000000FD
S31500003DC000000000000000FE0020001000000000BF
S31500003DD000000000000000000000000000000000DD
S31500003DE000380044003C0044004C00340000000051
S31500003DF0004000400058006400440044006400583D
S31500003E0000000000000000000038004400400040B0
S31500003E100044003800000000000400040034004C98
S31500003E2000440044004C0034000000000000000084
S31500003E3000380044007C00400044003800000000C8
S31500003E40000C0010007C0010001000100010001084
S31500003E5000000000000000000034004C0044004454
S31500003E60004C003400040078004000400058006414
S31500003E70004400440044004400000000001000001C
S31500003E80007000100010001000100010000000006C
S31500003E90001000000070001000100010001000104C
S31500003EA0001000E000400040004800500060005054
S31500003EB000480044000000000070001000100010D0
S31500003EC000100010001000100000000000000000AC
S31500003ED000780054005400540054005400000000C0
S31500003EE00000000000580064004400440044004400
S31500003EF000000000000000000038004400440044B8
S31500003F000044003800000000000000000058006473
S31500003F1000440044006400580040004000000000D7
S31500003F200034004C00440044004C003400040004FB
S31500003F3000000000005800640040004000400040BF
S31500003F4000000000000000000038004400300008B7
S31500003F500044003800000000002000200078002007
S31500003F6000200020002000180000000000000000D3
S31500003F700044004400440044004C003400000000AB
S31500003F80000000000044004400280028002800101B
S31500003F900000000000000000005400540054006CB3
S31500003FA0002800280000000000000000004400284F
S31500003FB0001000100028004400000000000000006F
S31500003FC00044004400280028001000100010006083
S31500003FD000000000007C0008001000200040007C6B
S31500003FE00000000000180010001000100020002043
S31500003FF00010001000100018001000100010001033
S31500004000001000100010001000100010003000100A
S31500004010001000100008000800100010001000300A
S315000040200000000000000074004C000000000000CA
S30D00004030000000000000000082
S315000040380000081020190A408641002000000001EF
S315000040480A0455AA55AA55AA55AA320A46280101AC
S315000040582800280030110100000008500000000068
S315000040680000000000004000E803640019000A0090
S315000040780B1200006C2B0000070A0000C83800006D
S31500004088FC40002000000000A44C00200C4D00203D
S31500004098744D002000000000000000000000000031
S315000040A80000000000000000000000000000000002
S315000040B800000000000000000000000000000000F2
S315000040C800000000000000000000000000000000E2
S30D000040D88904000059040000F0
S31501010018FFFFFFFFFFFFFFFFFFFFFFFFFFFFFFFFE0
S31101010028FFFFFFFFFFFFFFFFFFFFFFFFD0
S705000002A157
