S01B00005241365F546F6B656E4E65745F4D61737465722E73726563EE
S31500000000D80AFE1F9D11000075100000AD110000FA
S31500000010AD110000AD110000AD110000AD110000E2
S31500000020000000000000000000000000AD1100000C
S31500000030AD11000000000000AD110000B515000074
S315000000404D0A000081090000250B0000A90B0000E5
S31500000050000000000000000000000000000000009A
S31500000060000000000000000000000000000000008A
S31500000070000000000000000000000000000000007A
S31500000080000000000000000000000000000000006A
S31500000400FFFFFFFFFFFDFFFFFCFFFFFFFFFFFFFFFB
S31500000410FCFFFFFFFFFFFFFFFCFFFF00FFFFFF00EA
S31500000420FCFF0F20FFFF0F20FCFF7F40FFFF7F40F8
S31500000430FCFF0D40FFFF0D40FFFFFFFF80B56F463D
S3150000044040F23C20C1F6FE70006844F6D351C1F27A
S315000004506201A0FB01014FF0FF3000EB9110002577
S31500000460B5EB106F0DD14EF21001CEF200014860CF
S315000004704EF62350CEF20000F022027007208D6067
S31500000480086040F24C0043F24411C1F6FE70C0F21F
S31500000490000100F0B3F843F20E10C0F20000102184
S315000004A00022012300F02CFF43F2F200C0F200000C
S315000004B013210022012300F023FF40F2BD2840F261
S315000004C0BE2A40F2BF2440F2C02140F2300640F27C
S315000004D03409C1F6FE78C1F6FE7AC1F6FE74C1F69D
S315000004E0FE71C1F6FE764FF0000BC1F6FE7905E00F
S315000004F0013040F2C021C1F6FE71306098F800006C
S31500000500002818BF88F800509AF80000002818BF85
S315000005108AF800502078002818BF2570087888B31C
S3150000052040F200000D70C1F6FE70026843F21F1122
S315000005304846C0F2000101F0B5F8484602F040FC1A
S3150000054081B2484600220123002500F0D9FE802210
S31500000550C4F2040210880BF0010120F0080040EA02
S31500000560C100108010885FFA8BF16BF300001080D9
S3150000057032F8600C6BF3000022F8600CB1FA81F0DF
S315000005804FEA501B40F2AC20C1F6FE7000780128FD
S3150000059006D140F2AC20C1F6FE70057000F0ECFF0B
S315000005A000F024FF002808BF00F098FF306849F2E9
S315000005B08061C0F2980188429AD140F20002C1F6E9
S315000005C0FE721068411C5928C8BF3C2111600020EA
S315000005D08FE7FFFF022818BF704740F2440043F23E
S315000005E0C431C1F6FE70C0F2000100F035BBFFFF5A
S315000005F080B56F46FFF722FF002080BDF0B503AF40
S315000006002DE9000F0246087847F2000EC4F2040EE8
S315000006100EEB401000F524304FF00008106282F80F
S315000006200080D16148694EF2001C50628869C2F8A8
S315000006302880D0629078CEF2000C20F00300431C94
S3150000064093704B784FF00109002B04BF40F0020075
S31500000650907091F90B40887A04F01F0509FA05F6A7
S315000006600CF18005630945F8236046F2003ABFF3B2
S315000006704F8FC4F2000ABFF36F8F5AF8243040F24E
S31500000680B40B23F480334AF8243000010CF540768D
S31500000690C1F6FE7B5AF8243030554BF8242091F9E8
S315000006A005300C7903F01F0009FA00F04FEA531CDD
S315000006B045F82C00BFF34F8FBFF36F8F5AF8230016
S315000006C020F480304AF823005AF823002001F05421
S315000006D04BF8232091F9070091F806C000F01F049B
S315000006E009FA04F4430945F82340BFF34F8FBFF3DB
S315000006F06F8F5AF8203023F480334AF820305AF8A6
S3150000070020304FEA0C1333544BF8202091F909009E
S3150000071091F808C000F01F0409FA04F4430945F8EB
S315000007202340BFF34F8FBFF36F8F5AF8203023F467
S3150000073080334AF820305AF820304FEA0C133354ED
S315000007404BF82020EFF3108089F310880B784FF0D8
S315000007500046DEF8005026FA03F325EA0303CEF836
S315000007600030DEF8003080F31088106A80F80280CE
S31500000770106A80F80480106A80F80980106A80F890
S315000007800A80106A80F80B80106AA0F81A80087830
S31500000790092802D8106A4023C374106A0623037717
S315000007A00878092803D8106A4FF478438382C878FA
S315000007B04E788B78C00040EA03102EB1032E08BF96
S315000007C040F04000F22600E0E226136A1870106A34
S315000007D08671C8690226037B156A06EA43036B73B2
S315000007E0166A00254378847835720678156A06F00D
S315000007F0FE06022E4FEAC31664F3451609D1FF23FF
S315000008006B7000780228106A08BF46F01006C671A1
S3150000081016E0EE714068136A86785E7046781D7839
S3150000082006F0030605F0FC052E441E70C6789E747D
S31500000830DE79007806F0A30600F05C003044D8713B
S315000008400020D369C2E90300C2E90500D1F81CC043
S3150000085093F905309CF800105AF823604EF2001008
S3150000086026F480364AF823605AF8236003F01F0501
S315000008700126CEF2000006FA05F400F5C0755B0904
S31500000880BFF35F8F45F8234040F82340D36993F9BF
S315000008900B305AF8234024F480344AF823405AF89F
S315000008A0234003F01F0406FA04F45B09BFF35F8FCD
S315000008B045F8234040F82340D36993F907305AF8A6
S315000008C0234024F480344AF823405AF8234003F0A6
S315000008D01F0406FA04F45B09BFF35F8F45F8234053
S315000008E040F82340D36993F909305AF8234024F499
S315000008F080344AF823405AF8234003F01F04A640E8
S315000009005B09BFF35F8F45F8236040F823601C2323
S31500000910166A63F39F01B170BCF80A0044F65511DC
S31500000920C5F24331108100205160BDE8000FF0BDD3
S3150000093080B56F46D0F820E09EF802C00CF07B032D
S315000009408EF80230837803F00303A2EB030C0B440A
S31500000950026AC0E9033C937843F08003937082787F
S3150000096002F00302022A06D10988006A41F47E4198
S31500000970C181002080BD0978006AC170002080BD59
S31500000980D0B502AF84B0EFF303804FF0704101EBB6
S31500000990006046F200318015C4F20001425822F48C
S315000009A080324250415840F2B401C1F6FE710C58F3
S315000009B0E0690169206911B1E0B104B0D0BDC8B1E8
S315000009C0A07800F00301E068022905D10088216AB9
S315000009D040F47E40C88102E00078216AC870A078A1
S315000009E0216900F00302881AE16820611144E16080
S315000009F00028E2D1206A817801F07B010431817000
S31500000A00606A00284FF00000E060D6D0A06A40B1CE
S31500000A10D0E900C2D0E90213CDE900C2CDE9021344
S31500000A2000E06846E1690978016000218160802163
S31500000A300171E16AC160616A8847A06A00281CBF2B
S31500000A409DE81E001EC004B0D0BDFFFFD0B502AFAA
S31500000A5086B0EFF303804FF0704101EB006046F281
S31500000A6000318015C4F20001425822F4803242500F
S31500000A70415840F2B401C1F6FE710C58A07800F05E
S31500000A800302206A022A03D1018A6FF35F2100E084
S31500000A904179A0690191D0B1606901A902F07EF99E
S31500000AA0A0786169A26900F003000144101A61612F
S31500000AB0A06134D1606A90B3A06AE0B1D0E900C207
S31500000AC0D0E90213CDE902C2CDE9041314E0606A4D
S31500000AD028B3A06A40B1D0E900CED0E90232CDE910
S31500000AE002CECDE9043200E002A8E2691278816004
S31500000AF00260042106E002A8E1690978016000218C
S31500000B00816001210171E16AC160616A8847A06A5A
S31500000B1028B102AC1ECC016042608360C46006B09E
S31500000B20D0BDFFFFB0B502AF84B0EFF303804FF046
S31500000B30704101EB006040F2B4028115C1F6FE720D
S31500000B4055580416296A8A7802F07B028A70696A07
S31500000B50E1B1A86A40B1D0E900C2D0E90213CDE9FB
S31500000B6000C2CDE9021300E06846E9690978016030
S31500000B700021816002210171E96AC160696A8847C2
S31500000B80A86A00281CBF9DE82E002EC046F2003041
S31500000B90C4F2000050F8241021F4803140F82410EB
S31500000BA050F8240004B0B0BDF0B503AF4DF804BD55
S31500000BB084B0EFF303804FF0704101EB006040F228
S31500000BC0B4028115C1F6FE725458A178236A01F069
S31500000BD00301022903D1198A6FF35F2100E05979D5
S31500000BE01A79D50602F0380204D51D7F65F3861200
S31500000BF082F040021D7905F0C7051D71636A05166E
S31500000C00D3B1A06A40B1D0E900CED0E90263CDE904
S31500000C1000CECDE9026300E06846E3691B78816097
S31500000C2003600271E16AC160616A8847A06A0028B0
S31500000C301CBF9DE84E004EC046F20030C4F20000D4
S31500000C4050F8251021F4803140F8251050F8250081
S31500000C5004B05DF804BBF0BD80B56F4645F2542282
S31500000C60C5F24F020260084600F002F8002080BD7F
S31500000C70F0B503AF4DF804BD044600F05FF840F24E
S31500000C80B00CEFF31080012181F31088C1F6FE7CD1
S31500000C90DCF8001039B940F60351C4F20401002211
S31500000CA00A7040220A70DCF800100131CCF80010FE
S31500000CB080F31088208820B340F6000E0021C4F28D
S31500000CC0040E07E00EEB801040F822302088013138
S31500000CD0814216D2606800EBC102928850F831302A
S31500000CE0100ADD03D2B2EDD50EEB801555F8226061
S31500000CF026F4803645F8226023F4803645F82260D3
S31500000D00E0E7EFF31081012080F31088DCF80000A3
S31500000D1020B1DCF800000138CCF80000DCF8000057
S31500000D2038B940F60350C4F2040000220270802253
S31500000D30027081F310885DF804BBF0BDF0B503AF17
S31500000D402DE9000F81B004460088002861D044F2E6
S31500000D5040084EF2BB4943F2904BC4F20408002609
S31500000D60C4F20109C0F2000B04E000BF208801367E
S31500000D7086424ED2002508E008F81500C820012159
S31500000D8000F04AF90135032DF0D060683BF81520D4
S31500000D9000EBC60189889142F4D150F8360099F8E3
S31500000DA00010012200F0B85002FA05FAB0F1807F77
S31500000DB00AEA010016D158B9012000F0C7F999F8DE
S31500000DC0000040EA0A0089F80000012000F092F9CC
S31500000DD018F915000028D5D418F8150040F0800041
S31500000DE0CAE700BF58B1012000F0B0F999F8000039
S31500000DF020EA0A0089F80000012000F07BF918F9C2
S31500000E001500B0F1FF3FBDDC18F8150000F07F00BB
S31500000E10B2E701B0BDE8000FF0BDFFFF4EF22000C3
S31500000E20C4F20100817940F214020068C1F6FE7234
S31500000E3052F82110C0F3026021FA00F040F23C2182
S31500000E40C1F6FE7108607047F0B503AF2DE9000BDF
S31500000E504EF28045C4F201054CF200144AF20350EA
S31500000E6040F2140842F60051C4F2010425F8820C3F
S31500000E704FF0000CC1F6FE78C0F2311141F20022AB
S31500000E8043F200604EF22006A4F800C0C0F27A02D7
S31500000E904FF40043C0F26E1041F6004E88E80E0093
S31500000EA008F10C01C4F20106C0F64E6E81E8094055
S31500000EB0B079316858F82000C1F3026140F23C294C
S31500000EC0C840C1F6FE79C9F80000092005F86DCCC6
S31500000ED086F88200287810B96878800754D0287878
S31500000EE048B901202870C820012100F095F800BFFC
S31500000EF028780128FCD1002068702870062086F822
S31500000F0085000020B07400BF307F0007FCD542F298
S31500000F10017030810020B072307F8006FCD502203F
S31500000F20207741F22120C2F2011030600520B07115
S31500000F30B079316858F82000C1F30261C840C9F899
S31500000F40000042F20400C4F20000F12101700E21FB
S31500000F50BFF35F8F0171F021BFF35F8F0170012036
S31500000F604021307486F8320086F8330031714FF430
S31500000F70254125F8821CA080A0880028FCD10120EC
S31500000F802080BDE8000BF0BD4FF47A7000F002F847
S31500000F90B4E7FFFF7047FFFFB0B502AF44F2240489
S31500000FA0C4F204040025C8200121257100F034F89C
S31500000FB0257000BF20780028FCD1207840F0020080
S31500000FC0207000BF20788007FCD4002004F8020CB3
S31500000FD014F8020C0028FBD1002004F11C0100BF0C
S31500000FE011F8102002F07F0201F8102011F91020EC
S31500000FF0002AFBD401300328F2D1012000F0A6F824
S315000010004EF2BB41C4F20101002201200A70BDE884
S31500001010B04000F06FB8FFFF484340F23C21C1F6F4
S31500001020FE7109684CF6002348F63812C3F69A3367
S31500001030C0F24102B3FBF1F1904206D24FF47A724C
S315000010405043B0FBF1F0800807E08900B0FBF1F0F7
S31500001050904207D24FF47A714843002808BF704780
S3150000106000F004B84FF0FF3000F000B80138002857
S31500001070FCD17047F0B503AF2DE9000B46F22018FE
S31500001080C4F20008B8F80000B8F8201040F27C0559
S3150000109001EA00091FFA89F60024C1F6FE7502E08E
S315000010A001340D2C0AD026FA04F0C007F8D055F802
S315000010B024100029F4D0E0B28847F1E7A8F8109090
S315000010C0BDE8000BF0BDFFFF43F2D03146F200321F
S315000010D00020C0F20001C4F2000200BF31F8103057
S315000010E0002B18BF42F820300130602808BF704737
S315000010F0F4E7FFFF0122EFF3108182F3108840F23C
S315000011003422C1F6FE7232F8103023B132F81030B4
S31500001110013B22F8103032F8102012B181F310880A
S3150000112070474EF2FE3CC4F2010C43F29642BCF804
S315000011300030C0F2000232F8100043F4254222EAE1
S315000011400000ACF8000081F31088704780B56F4648
S315000011500122EFF3108182F3108840F23422C1F6A7
S31500001160FE7232F810308BB94EF2FE3C43F29643D3
S31500001170C4F2010CC0F20003BCF800E033F81030F2
S3150000118043EA0E0343F42543ACF8003032F810303E
S31500001190013322F8103081F3108880BD80B56F4688
S315000011A000F006F8FFF724FAFEE7FFFF00BE7047DF
S315000011B0F0B503AF4DF804BD4EF6085040F20004FA
S315000011C0CEF200004FF47001C0F20004C0F88010A7
S315000011D0046000200025FFF7FDF9FFF735FE01202A
S315000011E00126FFF7F7F940F60450C4F200004FF469
S315000011F02541058020F8041C21684FF48052A1F592
S31500001200006141602168816046F22011C4F200014C
S315000012100A80068040F2300040F2D421C1F6FE700A
S31500001220C1F6FE71091A01F0B5FD40F2000040F268
S315000012301001C1F6FE70C1F6FE710A1A43F60801E6
S31500001240C0F2000101F0AAFD40F21004C1F6FE74DE
S31500001250204600F007FA204600F01AFA40F2100085
S3150000126040F21001C1F6FE70C1F6FE71091A8C102B
S31500001270012C06DB051F00BF55F8040F8047013C13
S31500001280FAD1FFF7CBFDFFF787FE0220FFF7A2F9A1
S31500001290FFF71AFF00205DF804BBBDE8F04000F040
S315000012A001B8FFFF7047FFFFF0B503AF4DF804BD6F
S315000012B04FF0000CD1B14FF0000E00BF10F80E50E9
S315000012C0A5F13006092E17D80CEB8C0405EB440566
S315000012D0092EA5F1300C09D80EF1010E8E4505D266
S315000012E010F80E40944201D0002CE7D1A3F800C0BC
S315000012F000205DF804BBF0BD01205DF804BBF0BD25
S31500001300F0B503AF2DE9000F81B040F2402840F25E
S31500001310412A0C46C1F6FE78C1F6FE7A002B08BFBC
S31500001320023498F800C09AF800E0A4B2BCEB0E05AF
S3150000133098BF3235ADB2AC4221D240F24629C1F651
S31500001340FE79F1B10024F34612E000BF5FFA8BF597
S315000013500BF1010B09F805605FFA8BF5312D88BF9B
S315000013604FF0000B8AF800B00134E5B28D4209D285
S31500001370E6B2865D012AE9D0002EF5D0E6E7012027
S3150000138016E0F346C3B1F44511D140F24C0009EB27
S315000013900C01C1F6FE700122FFF7CAFA98F80000A8
S315000013A00130C1B2312988BF002088F80000002032
S315000013B001B0BDE8000FF0BD5FFA8BF00D2109F812
S315000013C000100BF10100C1B2312988BF0020C1B263
S315000013D00A22013009F80120C1B2312988BF002054
S315000013E08AF80000F445D0D0E1E7FFFF40F2432041
S315000013F040F24221C1F6FE70C1F6FE71007809780E
S31500001400401AB0FA80F040097047FFFFD0B502AF2E
S315000014100279511E3F2900F22A80DFE801F0203DC3
S315000014202A2B2A2A2A202A2A2A2A2A2A2A202A2A29
S315000014302A2A2A2A2A2A2A2A2A2A2A2A2A202A2A10
S315000014402A2A2A2A2A2A2A2A2A2A2A2A2A2A2A2AF6
S315000014502A2A2A2A2A2A2A2A2A2A2A2A2A2040F212
S315000014604420C1F6FE70018801310180D0BD802A7A
S31500001470F5D0D0BD40F24221C1F6FE7180680A78EF
S3150000148040F27823C1F6FE739854501CC2B2312A3A
S3150000149088BF00200870D0BD40F2402440F24121B0
S315000014A0C1F6FE74C1F6FE7120780978884208BF3D
S315000014B0D0BD40F24621C1F6FE71014440F24C0017
S315000014C0C1F6FE700122FFF733FA20780130C1B26F
S315000014D0312988BF00202070D0BDFFFF40F2432194
S315000014E0C1F6FE71087840F27822C1F6FE72135CEE
S315000014F0242B12D140F2AA22C1F6FE72012340F239
S31500001500AD2C1370C1F6FE7C24228CF8002040F22C
S31500001510AB22C1F6FE72137025E040F2AA2CC1F68A
S31500001520FE7C9CF80020012A1DD1D0B502AF40F206
S31500001530AB2EC1F6FE7E9EF800200A2B02F10104B6
S315000015408EF8004040F2AD24C1F6FE74A354BDE807
S31500001550D04008D140F2AC22C1F6FE7201231370CE
S3150000156000228CF80020421CD0B231284FF0000037
S3150000157088BF00220A707047D0B502AF82B040F231
S31500001580AD20C1F6FE704178002441F02001732998
S3150000159007D10230A7F10A0305210A22FFF784FECC
S315000015A000E0002040F2AC21C1F6FE710C7002B0E2
S315000015B0D0BDFFFF40F20800C1F6FE700188013978
S315000015C00A04018007D140F2BD21C1F6FE71012255
S315000015D00A700A21018040F20A00C1F6FE700188F5
S315000015E001390A04018007D140F2BE21C1F6FE711D
S315000015F001220A701921018040F20C00C1F6FE702A
S31500001600018801390A04018007D140F2BF21C1F6E1
S31500001610FE7101220A706421018040F20E00C1F6BB
S31500001620FE70018801390A04018008D140F2C02108
S31500001630C1F6FE7101220A704FF47A71018040F200
S31500001640C220C1F6FE70018851B101390A04018039
S3150000165018BF704740F2C420C1F6FE700121017028
S315000016607047FFFFD0B502AF0549064A044601F0B0
S3150000167095FB05480549204401F08CFBD0BD00BF11
S315000016801838000001000000010000000000000002
S315000016900249401A02490860704700BF080000006E
S315000016A0D002FE1F82B0B0B502AF88B00446104823
S315000016B00025C7E9022307F108020695CDE9025580
S315000016C0ADF8005004940792019002208DF80200B4
S315000016D06FF0004020440590684600F013F800289B
S315000016E000D4255408B0BDE8B04002B0704700BF32
S315000016F0F5160000D1E904239A421EBF531C0B6164
S3150000170010707047F0B503AF2DE9000F95B0814614
S3150000171080781492800740F1DE84D9F80400002610
S3150000172088460C90149813900DA80A91821D089271
S31500001730421D013807920590414611F8010B2528F4
S3150000174003D0884640B900F0C8BC98F801A008F15B
S315000017500208BAF1250F06D100F0A2FD01360028D5
S31500001760EAD500F0B2BC002200244FF0000C4FF086
S31500001770000B1FFA8BF51F2D0DD8AAF1270009289B
S3150000178032D8DFE800F0B20A0A0A050A740A0A71BA
S315000017904BF0020B62E07F2D11D8AAF13000092828
S315000017A02BD8402D27BF04EB840100EB41040CEB42
S315000017B08C0100EB410C38BF4BF0200B95E0BAF1E1
S315000017C04C0F4ED0BAF1680F5BD0BAF16A0F48D011
S315000017D0BAF17A0F00F08980BAF1740F00F08580B3
S315000017E0BAF16C0F46D088E0BAF1200F36D0BAF1C4
S315000017F0230FD2D14BF0100B77E0BAF1240F4DD066
S31500001800BAF17A0F71D0BAF12E0F41D0BAF14C0F5E
S3150000181027D0BAF1680F34D0BAF16A0F21D0BAF1E5
S315000018206C0F27D0BAF1740F5FD0BAF12A0F64D1CA
S31500001830002A5AD11398011D13913F2D006852D8E2
S31500001840B0F1FF3FDDBF4BF0280BC0F1000C0022CA
S315000018504BF0200BC4BF0022844646E04BF0040B3D
S3150000186043E04BF4207B40E04BF0010B3DE04BF0B6
S31500001870080B3AE00BF080004BEA800040F0800B4A
S3150000188033E00BF480704BEA400040F4807B2CE0A0
S315000018903F2D00F222844BF0400B26E0E2B1149873
S315000018A0CDF82C9091462246402DA24664461390D0
S315000018B038BF62460A9813A900F01AFC13984A46E4
S315000018C0DDF82C90A4465446011D1391402D006866
S315000018D034BF8446044608E0624600244FF0000CFC
S315000018E04FF0000B01E00022044618F801ABBAF1F4
S315000018F0000F7FF43EAF4FF0000ACDF82CC03AB18E
S31500001900149813900A9813A900F0F2FBDDF82CC086
S315000019104AF02000002C48BF2BF0400B24EAE47567
S31500001920A0F16501032901D361282FD11399A0EBFA
S315000019300A0A073121F00701612891ED000B01F138
S315000019400802139213D15FEA4B6058BF4FF0FF3580
S315000019500DAC5FFA8AF22946204600F0BDFC05462A
S31500001960421C70204BF4C05B0290012042E05FEA0B
S315000019704B6158BF06250DACC1B2662921D0652939
S3150000198027D165204BF4805B691C27E06FF06E0160
S315000019905FFA8AF251FA8AF1062959D80992082380
S315000019A04FF0000EDFE811F0EF010700E901E90151
S315000019B0B001E901A8014BF0100B10234FF0780E8F
S315000019C0E1E166204BF4005B012211212B460290D7
S315000019D007E02906294608BF0121023800230290A4
S315000019E00022C9B22046112928BF112100F01BFD93
S315000019F0024602200D9B13F1090F07DA13F1630F5C
S31500001A000DD213F57A7F08D8042009E0092B07DDEB
S31500001A10632B04D9B3F57A7FF6D2032000E00220C7
S31500001A209DF8381003901FFA8BFCC8070CD1964618
S31500001A305FEA8B720AD45FEA4C7220D400207246A9
S31500001A404FF0010E06901FE02D201AE02B2017E024
S31500001A50692A18BF642A40F039811FFA8BF05FEAC1
S31500001A600B6100F1408113990A1D13920A68C105A2
S31500001A7040F14081800554BF12B252B23AE12020B3
S31500001A80724606904FF0000E11F00C0F19D004208C
S31500001A90BEF1000F18BF03200B99814221DD5FEADA
S31500001AA00B7120D40B997546441A00F009FC0028E6
S31500001AB000F10B83013406F10106F6D30024AE468D
S31500001AC013E01BF4405F42D1012D98BF0125D1B22E
S31500001AD059B310460A191279302A024625D1013A1D
S31500001AE0F5E7002401E00B990C1ABEF1000F06D1B0
S31500001AF0069800F0D5FB002800F1E78201369DF834
S31500001B003800DFF8E8550007DFF8DC0558BF054662
S31500001B102878002800F0D082A0EB0A0000F0D8FB5D
S31500001B20013601350028F3D5CFE25FEACC6048BF25
S31500001B30294613F1040F09DBAB4207DA8B424BF45B
S31500001B40005BAEBF0025D8430D1800E04D1E1FFAFE
S31500001B508BF15FEA8B40099301924FEA015B049196
S31500001B6007D40520BBF1000F58BF03200399084492
S31500001B7003E0581C012BB8BF0120691C8EF0010C34
S31500001B80049A002D08BFC2F3001101EB0C030B9C55
S31500001B900344E41A4FF00003D8BF1C4612F0090FA5
S31500001BA012D18CB108440B99CDF800E06044441A78
S31500001BB000F086FB002800F18882013406F1010658
S31500001BC0F6D3DDF800E00024BEF1000F06D106983A
S31500001BD000F066FB002800F178820136BBF1000FA9
S31500001BE00CD500F069FB002800F16F82CAF178007D
S31500001BF000F06EFB002800F16882023604980007A8
S31500001C0009D444B1264400F057FB002800F15D8258
S31500001C10013CF8D1002404980999019A80042DD436
S31500001C209DF839009346312805D09DF8381001F00B
S31500001C30EF018DF8381000F033FB002800F14582E3
S31500001C40012DC0F2E78000F03FFB002800F13D8245
S31500001C50A8195FFA8BF602300B900020854200F03F
S31500001C60A98100F1010BB3453ABF0899085C302001
S31500001C7000F016FB00285846F0D526E2079821EA20
S31500001C80E17AC5F1000BCAF1000508440690D0B20E
S31500001C900B90012D05D100F017FB002800F11582ED
S31500001CA00136099841194FF0300004D40B9A91423D
S31500001CB001DA0698405DDA4555DD00F0F1FA0135A6
S31500001CC00136AAF1010A0028E3D5FEE1632A09924A
S31500001CD053D1139801250DF1340A011D13910068A3
S31500001CE08DF8340027E08005139800F19980011DD6
S31500001CF013910268D3179BE04FF6EF700A234FF05B
S31500001D00750E0BEA000B3EE01398011D13915FEA76
S31500001D104B6158BF4FF0FF35D0F800A0DFF8C40381
S31500001D202946BAF1000F08BF8246504600F06EFB06
S31500001D30DDF82CC005465FEA0B7000F19881AB46D2
S31500001D40AC4538BFE346AC4540F290810C9A202062
S31500001D50494664469047002800F1B781A4460136FB
S31500001D60A4F1010CEFE70131C0F096819DF839101E
S31500001D70352940F28B8131208EE1782840F00681AA
S31500001D80CAF18803D6464FF6F970CDF824E00BEA7F
S31500001D90000E5FEA0B600CD41398011D13915FEAE5
S31500001DA0CE5100680CD55FEA8E5154BF80B2C0B2E6
S31500001DB006E05FEA8E50139804D4011D1391006863
S31500001DC0002107E0073020F007010A46496852F86B
S31500001DD0080B139250EA010208BF2BF0160E0DD025
S31500001DE00DF1340A7446524600F034FADDF82CC080
S31500001DF0A646A0EB0A0BDDF824A037E05FEA4B62AB
S31500001E00EED5012CECDA4FF6E9700BEA000E4FF036
S31500001E10000BF0E70498C00600F1C580701CC8E00E
S31500001E20073020F007000146436851F8082B13914C
S31500001E305846002B83EAE37148BF40F4806020F0E7
S31500001E40100E82EAE370B0EBE37061EBE3711A43C4
S31500001E5000F092800DF1340B0A2374465A4600F0C6
S31500001E60F9F9DDF82CC0A646A0EB0B0B5FEA4E6035
S31500001E7002D4714658460CE04FF6FE70AB450EEAAA
S31500001E800001584605DA2846BAF1000F08BF2EF0C1
S31500001E9011018AB2C90605D440F20641114018BFA5
S31500001EA0012104E00221BAF1000F08BF01210C183C
S31500001EB0099210071AD4D00706D05D466445BEBF06
S31500001EC00BEB0C00051B64462046A445C8BF6046C4
S31500001ED00690644509DA00F0F3F9002800F1F58070
S31500001EE0DDF82CC001340136F3E7069C0999C806D3
S31500001EF010D440F20640014221D088074FF02B0053
S31500001F0058BF2020490548BF2D2000F0C9F90028F8
S31500001F1012D5DAE000F0D0F9002800F1D680BAF147
S31500001F20000F09D00C9A5FFA8AF0494690470028BC
S31500001F3000F1CB80023600E00136DDF82CC0ACEBB8
S31500001F4004045D4506DD00F0B7F9013D01360028C1
S31500001F50F7D5BAE00598002500EB0B0ACBF1000B8C
S31500001F60AB4507D01AF8050000F09AF9013D0028A4
S31500001F70F6D5AAE0761B9FE05FEA4B627FF56AAF73
S31500001F80012CBFF667AF4FF0000B6FE70C9A2520C8
S31500001F9049469047002800F19880099800F080F99A
S31500001FA00236FFF7DCBB00F08FF9002800F18D80C8
S31500001FB0B01C0B9002980C9A4946A0EB0A00C0B2DE
S31500001FC09047002800F181800999002908D405D19D
S31500001FD09DF83800C00603D4002009902B2002E0AB
S31500001FE049422D20099100F05BF900286DD4039831
S31500001FF0042815D309994FF47A700C9AB1FBF0F5C1
S31500002000494605F13000C0B2904700285DD40999D1
S315000020104FF47A7005FB10110B9800F1030A05E0E6
S315000020200B99032801F1020A09992CD1642000F0CA
S315000020303AF9002849D4642029460AF1010A06FB28
S3150000204010510A2000F02FF900283ED406EB860036
S3150000205029460AF1010AA5EB400101F1300000F022
S3150000206037F9002831D40AF1010625E0DC462E4472
S31500002070ACEB050405B31AF8010B00F011F9013DAC
S315000020800028F7D521E00228DBD2E6E704D19DF847
S315000020903810C9067FF56FAE00F002F9002814D497
S315000020A00499701CC90606D52DB900F00DF9002853
S315000020B00BD4023600E00646012CFFF63DAB00F0DD
S315000020C0FFF80136013C0028F6D599F8020040F0E9
S315000020D0040089F802004FF0FF36304615B0BDE81F
S315000020E0000FF0BD27310000063100000A31000064
S315000020F0F0B503AF2DE900078246554889464FF0F3
S3150000210001084FF0010C5546944580F29D802B4600
S3150000211013F8011B252903D000291D46F7D193E0AA
S315000021206C780235252CF2D000264FF0000E0023E5
S31500002130B1B21F2908D8A4F12001102906D808FA3F
S3150000214001F1014245D101E07F290AD8A4F130010D
S31500002150092913D803EB830346F0200601EB43035A
S3150000216037E04C2C21D0682C29D06A2C1DD07A2C33
S315000021702FD0742C2DD06C2C1AD02FE07A2C28D08E
S315000021802A2C25D02E2C23D04C2C0ED0682C16D0E1
S315000021906A2C0AD06C2C0BD0742C1AD0242C1DD18E
S315000021A0BEF1000F12D19E4612E046F4207610E0F2
S315000021B006F0800146EA810141F0800609E006F456
S315000021C0807146EA410141F4807602E063450CD015
S315000021D0002315F8014B002CAAD10024BEF1000FF4
S315000021E032D0E6457FF490AF02E06324E646F5E799
S315000021F044F02001A1F16503032B01D361290BD122
S31500002200D9F80010073121F0070101F10803C9F8D8
S3150000221000300CF1010C76E7E3B2732B07D0642B88
S3150000222003D0692B01D0632B01D0310603D4D9F832
S3150000223000100B1DEBE7B1B2D9F80030890501D4C7
S315000022400433E4E7D91DDEE7BDE80007F0BD00BFB3
S3150000225089280100F0B503AF2DE9000B9846144616
S315000022600D46064603F01F09304629464A46002316
S3150000227000F00EFF00FB1962A2EB0803092A88BFD3
S3150000228003F13702303204F8012BB6EB0902064699
S3150000229075F100020D46E7D22046BDE8000BF0BD01
S315000022A00C9A494610470C9A0D46B1FBF0F6494682
S315000022B006F13000C0B210470C9A3020494610474C
S315000022C00C9A2020494610470C9A2E204946104762
S315000022D00C9A4946C0B21047F0B503AF2DE9FE0F80
S315000022E08146302090460D46312389F8050050EC92
S315000022F0106B0446C0F30A5242EA06016FF31F54FC
S31500002300214307D02AB189F80530A2F2FF323223E1
S3150000231000E03D4A4FEAD07B002D89F804B003D493
S315000023200C2D03D90D253FE000253DE03320069214
S3150000233000210193A0EB850A0220524600F048FDD9
S31500002340424205924FF000028A41013804925246F9
S31500002350039061F10000002120400290012000F06E
S3150000236037FD82460398069A3040BAEB0000029881
S3150000237071EB00000BD3A80003912146C0F1340293
S31500002380304600F039FD0399069AC00708D016EBCF
S315000023900A064C41B4F5801F24BF019889F8050050
S315000023A00598064004980440B2F5806F09D156EAB4
S315000023B004004FF0080008BF0420584489F80400C0
S315000023C01BE094461220411F16D016F00F0201D1D1
S315000023D0A9420BDCA2EB080357330A2A38BF02F1E5
S315000023E0300309F80030A942C8BF0D46310901384B
S315000023F041EA04762409E6E76246C9F80020284641
S3150000240007B0BDE8000FF0BD02FCFFFFD0B502AF7C
S315000024104218034629B11C7814B101390133F9E792
S315000024201A46101AD0BDF0B503AF2DE9000F9DB0C6
S3150000243056EC109B8C46B046F40FC6F30A556FF364
S315000024401F5859EA080108BF002D0BD040F2FF764D
S31500002450B54210D108224FF0000B002908BF042214
S31500002460111906E030214FF0010B41710021016086
S31500002470A11C0171F4E10A9200220694A5F23544EA
S31500002480022D38BF0122002918BF012141EA0206A8
S31500002490002D18BF08F580184FEA880141EA9971A6
S315000024A013914FEA890104BF4FF6CC34CFF6FF747F
S315000024B0002C129109F00101049107A981E8091085
S315000024C042D4204600F0FCFA8346032C88BFABF1C9
S315000024D0010B584600F000FB14AD824658462946CB
S315000024E000F08EFB18A81AA92A460F960296CDE987
S315000024F00010ABEB04004146504400F17C03484613
S3150000250000F0CEF98246BBF1150F109100F29A80C9
S31500002510129E139C3046214600F0B2F9820820F044
S31500002520030042EA817108444042F04254D13046E9
S31500002530214600F0D9FA00210F9158454FF00000CE
S3150000254028BF0120119080E0C4F1000B584600F02E
S31500002550BDFA8246601C18BFAAF1010AABEB0A0B52
S31500002560584600F0B9FA054614A958468B4600F0BD
S31500002570D9FA18A81AA95A460296CDE90010AAEB6C
S315000025800500414600F17D03484600F089F9804682
S315000025900AEB040BBAF1010F109105D80498DDE996
S315000025A0095250BB0F9631E0099DBAF13E0F31D862
S315000025B04FF0FF304FF0FF31524600F009FC139AFE
S315000025C022EA0101129A22EA00000843B0FA80F0DA
S315000025D04009119000201FE0049810BB0F98C043DB
S315000025E0801964F1000100F07FFA0021119158452D
S315000025F04FF0000028BF012026E0DDE91A0101386E
S315000026001A9061F100001B9000200F900120089B9A
S31500002610119004E000201190089B0A9A0F90C24680
S3150000262016E046F00200214600F05EFADDE91A12D5
S315000026304B1E62F10004584538BF0B461A9338BF4B
S3150000264014461B94002011900F900A9ADDE9083574
S31500002650284672B1109950461C4600F00EFA0BEB54
S315000026600401234608440128D8BF01208542B8BF8B
S315000026702846DDE91869DDE91A410B90002000259E
S31500002680CDF814B0CDE9120020460E940D9100F05D
S31500002690EEF804468B4630464946CDF8309000F0B9
S315000026A0E6F88046001B894671EB0B000DD31099A6
S315000026B0504600F0E2F90B99884221DD2A460125B1
S315000026C019B9109850EA0A001DD01099504600F02A
S315000026D0CEF810911299119A00F0E7F90F9A8246F6
S315000026E0129108EB8801C6EB41014646B1FA81F129
S315000026F049090A4013990F92013113915946C3E7CC
S31500002700DDF840B004E04FF0000A4FF0000B15462C
S315000027100F9CDDF81490E0072BD0DDF83080CDE972
S315000027200F453046414600F0A2F8044600EB800013
S315000027300D4671424042B1EB400F16D1DDE90D1056
S3150000274000F095F8CDE90D105046594600F08FF887
S315000027508B461299119A2646A84600F0A6F982469B
S315000027601291139901311391DBE7DDE90F45CDF89D
S315000027703080139881441298C0B2411F18BF0121BE
S31500002780EA070CD10C9B8AEA060283EA0B031A437A
S3150000279005D1049A82F001022240012A65D1119ADC
S315000027A082F001021143002241EA0A01042888BF8F
S315000027B0012201EA02041AEB04064BF1000A304634
S315000027C0514600F05AF98046FCB10B9988451DDD4B
S315000027D00A9840B108984844404420EAE0710998B4
S315000027E08842B8BF0146884510DD701D0C464AF187
S315000027F000010A22002300F04BFC8A4606462146C9
S31500002800A8F1010809F1010900E00B998845B8BF54
S3150000281041460FFA89F00FFA81FBDDF81C900BF1A7
S315000028200405A0F1010800245C4512DA3046514641
S315000028300A22002300F02CFC8A4600EB80010134BA
S31500002840A6EB4101064641F0300109F80510013DAD
S31500002850EAE7069889F8040008EB0B00C9F80000BF
S3150000286058461DB0BDE8000FF0BD0124A3E780B5B2
S315000028706F4600F005F8C00840EA4170C90880BDFF
S31500002880F8B504AF02AA4FF0CC330092034A00F029
S3150000289045FADDE9020104B080BD00BFCDCCCCCC49
S315000028A0F0B503AF2DE9000F8BB01E469246D2E974
S315000028B0002308AC49004500009441EAD07428463C
S315000028C0214600F02BFA0590DAE90223DDE90889B2
S315000028D006A88B4621460090284600F01FFA18EB02
S315000028E0000849EB0109DDE90801B8EB000079EBC6
S315000028F001004FF0000038BF0120DDE906124D1C33
S3150000290042F10004002808BF1446079408BF0D468C
S315000029100296413E9AE80F000695CDF80CB0049653
S315000029200096059E12EB080243EB090380194FF04F
S3150000293000065BEB010052F1000043F10001B0EB31
S31500002940080271EB090238BF01266A1C44F1000334
S31500002950002E04BF23462A4600F001FABA68C2E9EF
S3150000296000013869012830D1DAE90201DAE900CE3E
S31500002970059BDDF810A0DDE90654B8EB0006CDF89E
S3150000298000A069EB0102701E62F10001B3EB0C03BB
S31500002990039B73EB0E034FF0000338BF0123002B9C
S315000029A004BF304611460026B8EB000279EB01025F
S315000029B038BF01266A1E64F10003002E04BF2A46B2
S315000029C0234600F0CCF9544649E0029B039C9AE862
S315000029D00340DAF80CA0DDE9062CA3F14006059BBE
S315000029E00096660046EAD376D0EB430076EB01000C
S315000029F04FF000064FEA490038BF012640EAD87377
S31500002A004FEA480040EAD474B4EB0E0E63EB0A05B5
S31500002A10BEF1010065F10001002E04BF2946704693
S31500002A20251A73EB01054FF0000538BF0125B4EBFD
S31500002A30080473EB09034FF0000338BF012343EA90
S31500002A4042044FEA4C0343EAD276621E66F1000363
S31500002A50002D04BF2246334600F081F9049CFA6833
S31500002A60C2E90001DDE9062340464946009400F02C
S31500002A7076F90BB0BDE8000FF0BDF0B503AF4DF829
S31500002A8004BD00230A2401220A25461B71EB030616
S31500002A9007D3A5FB045603EB8303013206EB43037E
S31500002AA0F3E710465DF804BBF0BDC9B2B1FA81F197
S31500002AB049090A4000EB8001AAEB410111927047D7
S31500002AC001494843800C704741340100014948439D
S31500002AD0000D7047FB2E0B0002494843012101EB14
S31500002AE0D04070474F931200F0B503AF4DF804BDC8
S31500002AF00A4B0B4D02464FF0FF304FF0CC3CA2FB89
S31500002B000364013002FB0C4201FB0321721B71F1CD
S31500002B1033323246F3D35DF804BBF0BDCDCCCCCC1A
S31500002B2034333333F0B503AF2DE9000F89B08A464D
S31500002B301A210546B0FBF1F22E4802FB01FB00EB21
S31500002B4002105D4502D100F0E1F84FE006A92A4ADD
S31500002B500091A5EB0B0152F8314002EBC101D0E91F
S31500002B6002234E680168039141682046029131466E
S31500002B7000F0D4F8804604A8DDE9023289463146E1
S31500002B800090204600F0CAF80E46DDE904120390D4
S31500002B90002018EB010859EB020940F1000001285A
S31500002BA001D100F0ABF82846FFF796FF04465846D9
S31500002BB0FFF792FF241A0398314642464B4600948B
S31500002BC000F0CDF81E226FF0030302EA450203EA85
S31500002BD095030A4DEB5800F087F8CAE90001404614
S31500002BE04946009400F0BBF8CAE9020109B0BDE805
S31500002BF0000FF0BDA0340000703500004036000024
S31500002C00F0B503AF2DE9000F89B08A4605461930A5
S31500002C101A21B0FBF1F2314802FB01F600EB02107B
S31500002C20AE4202D100F072F853E006A92C4AD0E970
S31500002C30009B0091711B52F8318002EBC101D0E973
S31500002C4002234C684046214600F068F8CDE90210A0
S31500002C5004A8B9F10102214600906BF10003404639
S31500002C6000F05CF88B46DDE9033104460020059A46
S31500002C7011EB0308029952EB010940F1000001280B
S31500002C8001D100F03BF83046FFF726FF06462846FE
S31500002C90FFF722FF361A2046594642464B46009613
S31500002CA000F05DF86FF003030E4C1E2203EA950355
S31500002CB002EA4502E35800F017F8013041F100013D
S31500002CC0CAE9000140464946009600F048F8CAE9BC
S31500002CD0020109B0BDE8000FF0BD00BF9836000044
S31500002CE0703500008837000023FA02F202F0030272
S31500002CF08018DDE9062341F100017047DDE9060190
S31500002D000130069041F100000790704790E80E00F0
S31500002D10C0688AE80E00CAF80C007047F0B503AF29
S31500002D204DF804BDA3FB0145A2FB0116A2FB00C2A0
S31500002D30D7F808E0521874411146264645F10005B9
S31500002D40E3FB0016A3FB0003801854EB030045F1D8
S31500002D500000CEE9006060465DF804BBF0BDF0B54A
S31500002D6003AF2DE9000BD7F80880164689460546BD
S31500002D7019463046C8F1400200F02AF806460C46CD
S31500002D8028464946424600F037F830432143BDE81D
S31500002D90000BF0BD0A46002100F00AB8D0B502AF1C
S31500002DA000239A4208BFD0BDCC5CC4540133F8E777
S31500002DB000239A4208BF7047C1540133F9E7FFFF69
S31500002DC0034613F8012B002AFBD1181A0138704765
S31500002DD093060BD4002A08BF7047C2F1200320FADD
S31500002DE003F3914090401943704700BFA2F12001C0
S31500002DF000FA01F10020704793060BD4002A08BFA1
S31500002E007047C2F1200301FA03F3D040D1401843C2
S31500002E10704700BFA2F1200021FA00F000217047A0
S31500002E202DE9F047DDF820C091B1EAB1A3B3B3FABA
S31500002E3083F7B1FA81F6BC1B202C5BD3BCF1000FE3
S31500002E4018BFCCE9000100200021BDE8F08700BFD3
S31500002E50002B41D0BCF1000F4FF0000150D0CCE95F
S31500002E6000010020BDE8F087002B4DD0002861D07E
S31500002E705F1E3B426CD1BCF1000F1CBF07EA01028A
S31500002E80CCE9000293FAA3F0B0FA80F021FA00F040
S31500002E900021BDE8F08700BF571E3A4236D1BCF18B
S31500002EA0000F1EBF07EA00030027CCE90037012AFE
S31500002EB008BFBDE8F08792FAA2F2B2FA82F202F0F7
S31500002EC01F07F8401F274B00D14027EA020203FAEA
S31500002ED002F21043BDE8F087B0FBF2F3BCF1000F3D
S31500002EE004D003FB12000021CCE9000100211846A2
S31500002EF0BDE8F08704F1010EBEF1200F10D031E0DD
S31500002F000020BDE8F08700BFBDE8F087B2FA82F77F
S31500002F10B1FA81F6BF1B07F1210EBEF1200F35D1A4
S31500002F2000254FF0200E4FF00008BEF1010F27D00C
S31500002F3041E000BFB1FBF3F0BCF1000F04D000FB91
S31500002F4013110022CCE900210021BDE8F08700BF63
S31500002F50B3FA83F7B1FA81F6BC1B1F2CBFF46EAF30
S31500002F6004F1010E84F01F0420FA0EF621FA0EF584
S31500002F70A140A04031434FF00008BEF1010F1AD125
S31500002F8000265FEACE7454D16FE000BFBEF11F0F7A
S31500002F9002D8CEF12004E7E7CEF14005AEF12006D7
S31500002FA000FA05F801FA05F5F0402843F14000253E
S31500002FB0BEF1010FE4D02EF0010A00266D0045EAAD
S31500002FC0D175490041EAD071CF43EC43BF184FEAAF
S31500002FD040005C418F1A40EAD87946EA480865EB1A
S31500002FE00306002C5CBF2E460F46710041EAD776D9
S31500002FF0790041EAD0774FEA49004FEA480140EAB2
S31500003000D87041EAD478FC43F143A41841EB030499
S31500003010B91A66EB0305002C5CBF35463946BAF192
S31500003020020A4FEAD476C9D14FF000095FEACE749E
S315000030301BD06F0047EAD17E490041EAD0774000B5
S3150000304040EAD87046EA4808FE436FEA0E01B61811
S3150000305041EB0304B91A4FEAD4764FF000096EEB40
S315000030600305002C5CBF754639464FEA48024FEA15
S31500003070D87343EA400322F00100BCF1000F18BFE9
S31500003080CCE90015304343EA0901BDE8F087FFFFAC
S3150000309040B584B002AE0096FFF7C2FE029A039BCB
S315000030A004B040BD00000805352E382E30004275AC
S315000030B0696C7420776974682052656E65736173F4
S315000030C020416476616E63656420466C657869624A
S315000030D06C6520536F667477617265205061636B0F
S315000030E06167652076657273696F6E20352E382E9E
S315000030F030000D0A46573A207630302E30362E30C4
S31500003100300D0A0D0A00696E66006E616E0041633D
S315000031106D6520576964676574203230303000244D
S3150000312030315325640A00286E756C6C2900FFFF48
S31500003130000100000400FE1F0F00FFFF000000005A
S31500003140FFFF000007020000020002010202020364
S3150000315000000000000000000D1400000000000048
S315000031603031000000400000040000000040000074
S3150000317008000000004000000900000004000000F4
S31500003180000100000000010008010000000001002D
S3150000319009010000000001000A010000000001060C
S315000031A00202000000000106030200000000010602
S315000031B004020000000001060502000010400000A5
S315000031C006020000000C011A08020000000C011A99
S315000031D009020000000C011A0A020000000C011A84
S315000031E00B020000000001090C02000000000109AA
S315000031F00D020000000C011A0E0200000000010082
S31500003200000300000500000004030000000C01118B
S3150000321005030000000C011106030000000C01115B
S3150000322007030000000C011108030000000C011147
S3150000323009030000000C01110A030000040000004D
S3150000324000040000000C011701040000000C011727
S315000032500204000004000000030400000500000052
S3150000326004040000000C011705040000000C0117FF
S3150000327006040000000001130704000040000105D9
S3150000328008040000400001050904000000000106D2
S315000032900A040000000001060B04000000000106FD
S315000032A00C040000040000000D04000000000106EC
S315000032B00E040000000001030F04000000000113CB
S315000032C000050000000001130105000004000000D5
S315000032D00305000004000000040500000040000093
S315000032E00505000000400000060500000080000003
S315000032F00705000000800000080500000004010723
S315000033000B050000000401070C0500000400000086
S3150000331003060000040000000B0600000000010583
S315000033200D060000000001050E060000000C011746
S3150000333000070000000C011701070000000C011730
S3150000334002070000000C011703070000000C01171C
S3150000335004070000000C01170507000000400000EC
S3150000336006070000000001140707000000400000E7
S315000033700807000004000000000800000400000028
S31500003380010800000400000002080000040000001C
S315000033900308000004000000040800000400000008
S315000033A005080000040000000709000004000000F2
S315000033B00809000000000114000B000000000114C1
S315000033C0010B00004C00000064310000000000000A
S315000033D09E019F01A001A101000000000000000065
S315000033E000000000000000000000000000000000D7
S315000033F000000000000000000000000000000000C7
S3150000340000000000000000000000000000000000B6
S3150000341000000000000000000000000000000000A6
S315000034200000000000000000000000000000000096
S315000034300000000000000000000000000000000086
S315000034400000000000000000000000000000000076
S315000034500000000000000000000000000000000066
S315000034600000000000000000000000000000000056
S315000034700000000000000000000000000000000046
S315000034800000000000000000000000000000000036
S315000034900204030404040100020008001000FFFFF8
S315000034A00000000000000000000000000000001006
S315000034B00000000000000000B9340332B7F4AD1478
S315000034C010DB1AB30892540E0D307D951447BA1AC4
S315000034D066088F4D26ADC66DF598BF85E2B74511D6
S315000034E0CA96853D92BD1DEBFCA11860DCEF521615
S315000034F03C92AE220BB8C1B4839D2D5B0562DA1CEB
S31500003500304C7E8F4E8BB25B16F4529F8B56A512B3
S31500003510FBD4827643ED8AF08FE7F93115651918E9
S3150000352050F19BD94A13EEB4284CF0A686C1251F4C
S31500003530035FC270CB9E4916E642889C44EB20147A
S31500003540B0650836AD6EA58585F0CA14E2FD031A8E
S315000035500B899979D5B13D09D8DA973A35EBCF1071
S31500003560AC363F5E73BB38CF3E6752FA44AFBA15EE
S31500003570010000000000000005000000000000003F
S3150000358019000000000000007D000000000000009F
S315000035907102000000000000350C00000000000071
S315000035A0093D0000000000002D3101000000000070
S315000035B0E1F505000000000065CD1D0000000000DB
S315000035C0F902950000000000DD0EE902000000008F
S315000035D0514A8D0E000000009573C248000000009D
S315000035E0E941CC6B010000008D49FD1A070000007F
S315000035F0C16FF28623000000C52EBCA2B1000000F8
S31500003600D9E9AC2D780300003D9160E45811000023
S3150000361031D6E275BC560000F52E6E4DAEB10100F6
S31500003620C9EA268367780800ED95C28F055A2A00F5
S31500003630A1EDCCCE1BC2D30025A4000A8BCA22045E
S315000036400000000000000000000000000000000074
S31500003650000000409559695955555455155555560C
S3150000366004051541105455404551554440455044B4
S315000036705055554500400040400444966555565502
S315000036804540455451411540559155555555405164
S31500003690050100000000000001000000000000001D
S315000036A00000000000000020345065C05FC9A6522B
S315000036B0BB13CBAEC440C21806C8DF7100D5A87CC8
S315000036C0F56F0FDA58FC27136E4756357D242065B3
S315000036D002C7E768E48CA41DE9E60268D7CD396124
S315000036E07977FCC2405BEF16798CDE43FFA751F970
S315000036F091F3B278F5BDBE11E857E9D6E8BEE87B8E
S31500003700B054AC8F848D751BEA23A499E9F9D38B49
S31500003710B7A3714061DA3E15CEE33ECB73F9480894
S315000037208C97B427D51B7010A2BFEFB9EB85321565
S315000037304DB44DB49BBB6F1996B6076CF8E7EEAD6A
S3150000374036D9B4F59135AE13222218AF4E6A684DBC
S3150000375091DAAA3D4F40741E9FBD9EE006A1C09817
S3150000376057C2A7FDA40E90170E7D497173E3208FF3
S31500003770B220D87605143B12853D7434811343B0CC
S31500003780AD297A5F27F4351C544554544555050434
S315000037900010041014044000000001405555154166
S315000037A054040000440001000000004041000044B1
S315000037B050444550540055555455655100400040FD
S315000037C001000001000501001154515154555505E1
S315000037D000000000000000000000000010000000D3
S315000037E000000000017A5200017C0E011B0C0D0046
S315000037F01000000018000000C8F5FFFF10000000D0
S30D000038000000000000000000BA
S315000038084B0000004001C2000A0019006400E803EA
S30600003818FFAA
S3150100A150FFFFFFFFFFFFFFFFFFFFFFFFFFFFFFFF08
S7050000119D4C
